:100000000C94EC170C9409350C94DE340C94B33436
:100010000C9488340C945D340C9432340C94073472
:100020000C94DC330C941D180C941D180C941D18A2
:100030000C941D180C941D180C941D180C941D186C
:100040000C941D180C941D180C941D180C941D185C
:100050000C941D180C94DA3F0C941D180C949233D8
:100060000C941D180C947F320C9456320C941D186D
:100070000C941D180C941D180C941D180C941D182C
:100080000C941D180C941D180C941D180C941D181C
:100090000C941D180C941D180C941D180C942E41D2
:1000A0000C941D180C941D180C941D180C941D18FC
:1000B0000C941D180C941D180C941D180C941D18EC
:1000C0000C941D180C941D180C941D180C942D32B2
:1000D0000C9404320C941D180C94DB310C94B23146
:1000E0000C941D185D18A918DC180F194219751900
:1000F000A819DB19F3190B1A231A3B1A531A6B1A96
:10010000831A9B1AB31ACB1AE31A6A1BF11B771CCA
:10011000F01C691DE21D5B1E6C1E841E9C1EB41E1D
:10012000CC1EE41EFC1E141F2C1F441F5C1F741FDA
:100130008C1FA41FBC1FD41FEC1F04201C203420C4
:100140004C2064207C2094208C584157905845576F
:1001500048574C574F57525756575A575E57615743
:100160003431373126312A3130316E313B313F3134
:10017000453149314D31533157315B316E31613148
:100180006531693182354C35543560356D358E3584
:100190009B355D4573455D4568455D4568455D45F5
:1001A0005D4568455D4568455D4507634236B79BDB
:1001B000D8A71A39685618AEBAAB558C1D3CB7CCC7
:1001C0005763BD6DEDFD753EF6177231BF0000003F
:1001D000803F08000000BE922449123EABAAAA2A22
:1001E000BECDCCCC4C3E00000080BEABAAAAAA3E3D
:1001F00000000000BF000000803F00000000000879
:100200004178D3BB4387D1133D190E3CC3BD428215
:10021000AD2B3E68EC8276BED98FE1A93E4C80EFD3
:10022000FFBE01C4FF7F3F0000000000000021006E
:10023000240027002A002D003000330001010000B7
:10024000040107010A0101021020200808102040C3
:10025000102040800201020108040201010204088A
:100260001020408080402010080402018004020118
:100270008040201008040201080402010102040861
:10028000102040800102040810204080050505056B
:10029000070508080808020202020A0A08080404FE
:1002A000040401010101010101010303030303032C
:1002B0000303040707070C0C0C0C0C0C0C0C0202BB
:1002C000020206060606060606060B0B0B0B0B0BB8
:1002D0000B0B00002200250028002B002E0031000F
:1002E000340002010000050108010B01000020009C
:1002F0002300260029002C002F00320000010000FE
:1003000003010601090100000A0B02090C0D0E0889
:1003100007030401000000000000000000000000CE
:1003200000000000000000000000000000000000CD
:10033000000012111000000000000000000000008A
:1003400000000000000000000000000036353237D9
:100350003920382031303030306D732057464920F5
:1003600031203120322039372057617465725F495E
:100370006E5F4675656C5F496E64696361746F7228
:1003800020345F7374617465732F325F6269742007
:1003900030206269740036353237362038203130EB
:1003A00030306D732020204444203220312038200A
:1003B0003936204675656C5F4C6576656C5F31201B
:1003C000302E345F252F62697420302025003635A9
:1003D000323732203820313030306D73205452465D
:1003E00031203520312031362031373720547261A9
:1003F0006E736D697373696F6E5F4F696C5F54657F
:100400006D706572617475726520315F6465675FD8
:10041000432F626974202D32373320430036353242
:100420003732203820313030306D7320545246310D
:1004300020342031203820313237205472616E73DD
:100440006D697373696F6E5F4F696C5F507265732E
:10045000737572652031365F6B50612F626974204D
:1004600030206B5061003635323732203820313041
:1004700030306D73205452463120332031203820E3
:10048000313236205472616E736D697373696F6EA9
:100490005F46696C7465725F446966666572656E15
:1004A0007469616C5F507265737375726520325F39
:1004B0006B50612F6269742030206B5061003635BB
:1004C000323731203820313030306D73205645506E
:1004D00031203520312031362031363820456C65C9
:1004E0006374726963616C5F506F74656E74696187
:1004F0006C20302E30355F562F62697420302056C4
:100500006F6C74730036353237312038203130301B
:10051000306D732056455031203720312031362040
:10052000313538204B65797377697463685F426150
:1005300074746572795F506F74656E7469616C2054
:10054000302E30355F562F626974203020566F6C24
:1005500074730036353237302038203530306D73C3
:1005600020494331203620312031362031373320A5
:10057000456E67696E655F457868617573745F473E
:1005800061735F54656D706572617475726520305A
:100590002E30333132355F6465675F432F62697493
:1005A000202D323733204300363532373020382083
:1005B0003530306D732049433120342031203820CC
:1005C00031303620456E67696E655F4169725F49FB
:1005D0006E6C65745F507265737375726520325FFF
:1005E0006B50612F6269742030206B50610036358A
:1005F0003237302038203530306D73204943312078
:1006000033203120382031303520456E67696E65E2
:100610005F496E74616B655F4D616E69666F6C6496
:100620005F315F54656D70657261747572652031FC
:100630005F6465675F432F626974202D3430204307
:100640000036353237302038203530306D73204950
:1006500043312032203120382031303220456E673E
:10066000696E655F496E74616B655F4D616E696649
:100670006F6C645F23315F507265737375726520B0
:10068000325F6B50612F6269742030206B506100C3
:100690003635323639203820313030306D732041D4
:1006A0004D422036203120382031373220456E67C8
:1006B000696E655F4169725F496E6C65745F546510
:1006C0006D706572617475726520315F6465675F16
:1006D000432F626974202D34302043003635323682
:1006E00039203820313030306D7320414D42203177
:1006F0002031203820313038204261726F6D6574AE
:100700007269635F507265737375726520302E3540
:100710005F6B50612F6269742030206B506100362E
:10072000353236362038203130306D73204C464516
:10073000203320312031362031383420456E67692E
:100740006E655F496E7374616E74616E656F75730B
:100750005F4675656C5F45636F6E6F6D7920312FF5
:100760003531325F6B6D2F4C5F7065725F626974FB
:100770002030206B6D2F4C00363532363620382035
:100780003130306D73204C464520312031203136D8
:100790002031383320456E67696E655F4675656C3C
:1007A0005F5261746520302E30355F4C2F685F706A
:1007B00065725F6269742030206C2F6800363532B4
:1007C00036362038203130306D73204C4645203786
:1007D0002031203820313833205468726F74746CA3
:1007E000655F506F736974696F6E20302E345F647B
:1007F00065677265652F6269742030206465677271
:1008000065650036353236352038203130306D732D
:1008100020434356532034203120322035393520AF
:100820004372756973655F436F6E74726F6C5F417D
:10083000637469766520345F7374617465732F32F5
:100840005F62697420302062697400363532363553
:100850002038203130306D732043435653203220EE
:100860003120313620383420576865656C2D42615F
:100870007365645F56656869636C655F5370656531
:100880006420312F3235365F6B6D2F685F70657273
:100890005F6269742030206B706800363532363301
:1008A0002038203530306D732045464C2F50312094
:1008B00038203120382031313120456E67696E652E
:1008C0005F436F6F6C616E745F4C6576656C203052
:1008D0002E345F252F626974203020250036353292
:1008E00036332038203530306D732045464C2F503C
:1008F000312037203120382031303920456E67696A
:100900006E655F436F6F6C616E745F507265737379
:1009100075726520325F6B50612F626974203020E0
:100920006B50610036353236332038203530306D2B
:10093000732045464C2F5031203120312031362054
:10094000313031204372616E6B636173655F507249
:1009500065617375726520325F6B50612F626974D7
:100960002030206B50610036353236332038203548
:1009700030306D732045464C2F50312034203120CB
:10098000382031303020456E67696E655F4F696C85
:100990005F507265737375726520345F6B50612FA1
:1009A0006269742030206B50610036353236332056
:1009B00038203530306D732045464C2F5031203370
:1009C0002031203820393820456E67696E655F4FC9
:1009D000696C5F4C6576656C20302E345F252F6224
:1009E00069742030202500363532363320382035E2
:1009F00030306D732045464C2F503120312031204E
:100A000038203934204675656C5F44656C697665BD
:100A100072795F507265617375726520345F6B50D7
:100A2000612F6269742030206B5061003635323698
:100A300032203820313030306D732045543120372A
:100A40002031203820353220456E67696E655F4958
:100A50006E746572636F6F6C65725F54656D7065FF
:100A600072617475726520315F6465675F432F62E0
:100A70006974202D34302043003635323632203828
:100A800020313030306D73204554312033203120F7
:100A900031362031373520456E67696E655F4F69A5
:100AA0006C5F54656D70657261747572655F31203D
:100AB000302E30333132355F6465675F432F6269B2
:100AC00074202D3237332043003635323632203809
:100AD00020313030306D73204554312032203120A8
:100AE000382031373420456E67696E655F4675651D
:100AF0006C5F54656D70657261747572655F3120ED
:100B0000315F6465675F432F626974202D34302044
:100B100043003635323632203820313030306D7374
:100B200020455431203120312038203131302045CA
:100B30006E67696E655F436F6F6C616E745F54655D
:100B40006D706572617475726520315F6465675F91
:100B5000432F626974202D343020430036353235FE
:100B600034203820313030306D732054442036200A
:100B700031203820393634205965617220315F794F
:100B80006561722F62697420313938352059656189
:100B90007273003635323534203820313030306DC4
:100BA0007320544420342031203820393633204DEE
:100BB0006F6E746820315F6D6F6E74682F62697438
:100BC0002030204D6F6E7468730036353235342016
:100BD0003820313030306D7320544420352031209E
:100BE00038203936322044617920302E32355F6426
:100BF0006179732F62697420302044617973003603
:100C000035323534203820313030306D7320544443
:100C10002033203120382039363120486F757273E7
:100C200020315F68722F626974203020730036357E
:100C3000323534203820313030306D732054442028
:100C4000322031203820393630204D696E75746578
:100C50007320315F6D696E2F6269742030207300DC
:100C60003635323534203820313030306D732054F1
:100C70004420312031203820393539205365636FC5
:100C80006E647320302E32355F732F6269742030AA
:100C90002073003635323532203820313030306D17
:100CA000732053485554444E20332031203220398C
:100CB000383520412F435F486967685F507265731C
:100CC000737572655F46616E5F5377697463682000
:100CD000345F7374617465732F325F62697420309E
:100CE0002062697400363532353220382031303098
:100CF000306D732053485554444E203320332032F6
:100D000020383735205265667269676572616E7486
:100D10005F4C6F775F50726573737572655F537761
:100D20006974636820345F7374617465732F325F14
:100D300062697420302062697400363532353220A1
:100D40003820313030306D732053485554444E2094
:100D5000332035203220363035205265667269677F
:100D60006572616E745F486967685F50726573731E
:100D70007572655F53776974636820345F7374615B
:100D80007465732F325F6269742030206269740069
:100D90003635323532203820313030306D732053C3
:100DA000485554444E2031203320322035393420E8
:100DB000456E67696E655F49646C655F53687574FD
:100DC000646F776E5F4472697665725F416C6572BD
:100DD000745F4D6F646520345F7374617465732F45
:100DE000325F6269742030206269740036353235B2
:100DF00032203820313030306D7320534855544400
:100E00004E2031203120322035393320456E67693C
:100E10006E655F49646C655F53687574646F776E67
:100E20005F6861735F53687574646F776E5F456E5A
:100E300067696E6520345F7374617465732F325F08
:100E40006269742030206269740036353235322090
:100E50003820313030306D732053485554444E2083
:100E600031203520322035393220456E67696E6574
:100E70005F49646C655F53687574646F776E5F5427
:100E8000696D65725F4F7665727269646520345F63
:100E90007374617465732F325F62697420302062ED
:100EA0006974003635323532203820313030306DBB
:100EB000732053485554444E203220372032203579
:100EC000393120456E67696E655F49646C655F53B3
:100ED000687574646F776E5F54696D65725F46758F
:100EE0006E6374696F6E20345F7374617465732F01
:100EF000325F6269742030206269740036353235A1
:100F000032203820313030306D73205348555444EE
:100F10004E2031203720322035393020456E676928
:100F20006E655F49646C655F53687574646F776E56
:100F30005F54696D65725F537461746520345F73CB
:100F400074617465732F325F626974203020626946
:100F50007400363532353120333920353030306D3C
:100F60007320454331203920312038203534312059
:100F7000456E67696E655F50657263656E745F5438
:100F80006F727175655F41745F506F696E745F3326
:100F90005F28456E67696E655F436F6E666967754A
:100FA000726174696F6E2920315F252F6269742028
:100FB0002D31323520250036353234352038203178
:100FC0003030306D732054432020203120312038C0
:100FD0002031303420456E67696E655F54757262EA
:100FE0006F636861726765725F547562655F4F69B0
:100FF0006C5F50726573737572655F3120345F6B1F
:1010000050612F6269742030206B50610036353199
:101010003938203820313030306D73204149523119
:1010200020312031203820343620506E65756D61B6
:101030007469635F537570706C795F507265737318
:1010400075726520385F6B50612F626974203020A3
:101050006B50610036353137302038203130306DFB
:101060007320204549202032203120313620313272
:10107000303920456E67696E655F457868617573C4
:10108000745F4761735F5072657373757265203169
:101090002F3132385F6B50612F626974202D3235E9
:1010A00030206B50610036353132392038203130F4
:1010B00030306D73204554332033203120313620B9
:1010C0003136333720456E67696E655F436F6F6CED
:1010D000616E745F54656D70657261747572655F81
:1010E00028486967685F5265736F6C7574696F6EC5
:1010F0002920302E30333132355F6465675F432FEE
:10110000626974202D32373320430036353132394D
:10111000203820313030306D732045543320312059
:1011200031203136203136333620456E67696E65A1
:101130005F496E74616B655F4D616E69666F6C646B
:101140005F315F4169725F54656D7065726174757E
:1011500072655F28486967685F5265736F6C757464
:10116000696F6E2920302E30333132355F64656708
:101170005F432F626974202D3237332043003635A8
:10118000313238203820313030306D7320564620CF
:101190003220312032203137313320487964726176
:1011A000756C69635F4F696C5F46696C7465725FEB
:1011B0005265737472696374696F6E5F5377697493
:1011C000636820345F7374617465732F325F626982
:1011D000742030206269740036353132382038206E
:1011E000313030306D732056462020312031203888
:1011F0002031363338204879647261756C69635FD9
:1012000054656D706572617475726520315F6465D7
:10121000675F432F626974202D34302043003635D8
:10122000313130203820313030306D732054493125
:10123000203220312038203330333120416674652C
:101240007274726561746D656E747343525F43614D
:1012500074616C7973745F54616E6B5F54656D700B
:101260006572617475726520315F6465675F432FD5
:10127000626974202D3430204300363531313020FE
:101280003820313030306D732054493120312031D5
:1012900020382031373631204166746572747265AA
:1012A00061746D656E747343525F436174616C79F0
:1012B00073745F54616E6B5F4C6576656C20302E85
:1012C000345F252F62697420302025003635313097
:1012D00034203820313030306D7320425431203189
:1012E00020312038203138303020426174746572EA
:1012F000795F315F54656D706572617475726520D8
:10130000315F6465675F432F626974202D3430203C
:1013100043003635303331203820203530306D737E
:1013200020455420203120312031362032343333CF
:1013300020456E67696E655F457868617573745F97
:101340004761735F54656D70657261747572655F36
:101350002D5F52696768745F4D616E69666F6C647A
:1013600020302E30333132355F6465675F432F6242
:101370006974202D32373320430036343939382010
:101380003820203130306D732048425320332031D3
:1013900020322032353834204879647261756C69A6
:1013A000635F4272616B655F5072657373757265DE
:1013B0005F5761726E696E675F53746174655F43F6
:1013C0006972637569745F3120345F737461746529
:1013D000732F325F62697420302062697400363482
:1013E000393938203820203130306D73204842534D
:1013F000203320352032203235383220487964724B
:1014000061756C69635F4272616B655F5072657391
:10141000737572655F537570706C795F5374617426
:10142000655F436972637569745F3120345F7374FB
:10143000617465732F325F62697420302062697451
:10144000003634393938203820203130306D73205F
:10145000484253203120312038203235383020485E
:1014600079647261756C69635F4272616B655F502C
:10147000726573737572655F436972637569745FD2
:1014800031203130305F6B50612F62697420302021
:101490006B506100363439393320382031303030E8
:1014A0006D732043414349203120312038203236AA
:1014B0003039204361625F412F435F526566726934
:1014C000676572616E745F436F6D70726573736F81
:1014D000725F4F75746C65745F507265737375726B
:1014E000652031365F6B50612F6269742030206B4C
:1014F0005061003634393235203820313030306D8B
:10150000732053535620203120312031362033357B
:1015100030392053656E736F725F737570706C79BC
:101520005F766F6C746167655F3120302E30355F98
:10153000562F626974203020566F6C7473003634F5
:10154000393233203820313030306D7320435249E6
:101550003120362031203420333532312041667439
:10156000657274726561746D656E747343525F4326
:101570006174616C7973745F52656167656E745FE5
:10158000547970652031365F7374617465732F34DC
:101590005F626974203020626974003634393233F6
:1015A000203820313030306D7320435249312033A0
:1015B000203120382033353138204166746572740B
:1015C000726561746D656E747343525F43617461DB
:1015D0006C7973745F52656167656E745F436F6E9B
:1015E00064756374697669747920355F6D696372B7
:1015F0006F5369656D656E732F6D6D2030206D536F
:101600002F6D6D0036343932332038203130303090
:101610006D73204352493120322031203820333538
:10162000313620416674657274726561746D656EE1
:10163000747343525F436174616C7973745F526574
:101640006167656E745F436F6E63656E747261741B
:10165000696F6E20302E32355F252F62697420301D
:1016600020250036313436392038202031306D7352
:101670002053415320203120312031362033363859
:1016800033205374656572696E675F576865656C72
:101690005F416E676C6520312F313032345F72618B
:1016A000645F7065725F626974202D33312C33374B
:1016B00034206465670036313436362038202035D2
:1016C000306D732054464143203120312031362083
:1016D0003334363420456E67696E655F5468726FC7
:1016E00074746C655F4163747561746F725F315FB0
:1016F000436F6E74726F6C5F436F6D6D616E6420CB
:10170000302E303032355F252F626974203020252D
:101710000036313436332038202032306D73204B80
:101720004C312020312031203820313335322045D2
:101730006E67696E655F43796C696E6465725F316F
:101740005F4B6E6F636B5F4C6576656C20315F2518
:101750002F6269742030202500363134363220382B
:10176000202032306D73204343532020312031201C
:1017700032203333383720456E67696E655F4379B1
:101780006C696E6465725F315F436F6D627573740F
:10179000696F6E5F53746174757320345F73746125
:1017A0007465732F325F626974203020626974003F
:1017B00036313435302038202035306D73204547A0
:1017C000463120312031203136203236353920451E
:1017D0006E67696E655F457868617573745F4761B0
:1017E000735F526563697263756C6174696F6E5F74
:1017F00028454752295F4D6173735F466C6F775F71
:101800005261746520302E30355F6B672F685F70D2
:1018100065725F6269742030206B672F6800363113
:101820003435302038202035306D73204547462030
:10183000203120312031362031333220456E676926
:101840006E655F496E6C65745F4169725F4D61736F
:10185000735F466C6F775F5261746520302E303550
:101860005F6B672F685F7065725F626974203020FC
:101870006B672F68003631343439203820203130FE
:101880006D732056444332203320372032203138C4
:101890003132205374656572696E675F576865659C
:1018A0006C5F416E676C655F53656E736F725F54FA
:1018B00079706520345F7374617465732F325F6271
:1018C000697420302062697400363134343920382C
:1018D000202031306D732056444332203320312094
:1018E000362031383131205374656572696E675F17
:1018F000576865656C5F5475726E5F436F756E7483
:10190000657220315F7475726E2F626974202D3399
:101910003220636F756E74003631343439203820CC
:101920002031306D73205644433220382031203826
:101930002031383130204C6F6E6769747564696E80
:10194000616C5F416363656C65726174696F6E2081
:10195000302E315F6D2F733F5F7065725F62697407
:10196000202D31322C35206D2F7332003631343436
:10197000392038202031306D7320564443202036E2
:1019800020312031362031383039204C6174657275
:10199000616C5F416363656C65726174696F6E2031
:1019A000312F323034385F6D2F733F5F7065725F57
:1019B000626974202D31352C363837206D2F733203
:1019C0000036313434392038202031306D732056C0
:1019D0004443322034203120313620313830382011
:1019E0005961775F5261746520312F383139325F28
:1019F0007261642F735F7065725F626974202D334A
:101A00002C3932207261642F73003631343439201E
:101A100038202031306D732056444332203120313C
:101A20002031362031383037205374656572696E45
:101A3000675F576865656C5F416E676C6520312F25
:101A4000313032345F7261645F7065725F626974F5
:101A5000202D33312C333734206465670036313420
:101A600034382038202035306D73204850472020EE
:101A700031203120313620313736322048796472B6
:101A800061756C69635F507265737375726520323E
:101A90005F6B50612F6269742030206B506100369B
:101AA000313434352038203130306D732045544383
:101AB00032203220312031362035323620547261C6
:101AC0006E736D697373696F6E5F41637475616C7A
:101AD0005F476561725F526174696F20302E3030EC
:101AE000312F626974203020526174696F00363181
:101AF0003434352038203130306D73204554433232
:101B000020312031203820353234205472616E73F8
:101B10006D697373696F6E5F53656C65637465643B
:101B20005F4765617220315F676561725F76616CE6
:101B300075652F626974202D3132352067656172B9
:101B40005F76616C7565003631343435203820316C
:101B500030306D73204554433220342031203820FA
:101B6000353233205472616E736D697373696F6EB1
:101B70005F43757272656E745F4765617220315F95
:101B8000676561725F76616C75652F626974202D7F
:101B900031323520676561725F76616C756500363C
:101BA000313434352038203130306D732045544382
:101BB00032203520312031362031363220547261C6
:101BC0006E736D697373696F6E5F5265717565735E
:101BD0007465645F52616E676520415343494920D3
:101BE00030204153434949003631343434203820C1
:101BF0002032306D7320454543312031203520346B
:101C000020343135342041637475616C5F456E67F3
:101C1000696E655F2D5F50657263656E745F546FAA
:101C2000727175655F486967685F5265736F6C753F
:101C300074696F6E20302E313235252F6269742021
:101C40003020250036313434342038202032306DB5
:101C50007320454543312038203120382032343339
:101C60003220456E67696E655F44656D616E645FC5
:101C70003F5F50657263656E745F546F7271756516
:101C800020315F252F626974202D313235202500E7
:101C900036313434342038202032306D73204545BD
:101CA0004331203720312034203136373520456EFE
:101CB00067696E655F537461727465725F4D6F64BE
:101CC000652031365F7374617465732F345F6269A8
:101CD0007420302062697400363134343420382066
:101CE0002032306D73204545433120362031203875
:101CF000203134383320536F757263655F416464FB
:101D0000726573735F6F665F436F6E74726F6C6C36
:101D1000696E675F4465766963655F666F725F458C
:101D20006E67696E655F436F6E74726F6C203130E1
:101D300030306D736F757263655F61646472657373
:101D4000732F6269742030205341003631343434AB
:101D50002038202032306D7320454543312031201A
:101D60003120342038393920456E67696E655F54FB
:101D70006F727175655F4D6F64652031365F737486
:101D8000617465732F345F626974203020626974F6
:101D90000036313434342038202032306D73204501
:101DA0004543312033203120382035313320416301
:101DB0007475616C5F456E67696E655F2D5F506518
:101DC0007263656E745F546F7271756520315F2543
:101DD0002F626974202D313235202500363134349C
:101DE000342038202032306D732045454331203275
:101DF00020312038203531322044726976657227CF
:101E0000735F44656D616E645F456E67696E655FA3
:101E10002D5F50657263656E745F546F7271756586
:101E200020315F252F626974202D31323520250045
:101E300036313434342038202032306D732045451B
:101E40004331203420312031362031393020456E65
:101E500067696E655F537065656420302E31323579
:101E60005F72706D2F62697420302072706D003661
:101E7000313434332038202035306D7320454543CC
:101E80003220332031203820393220456E67696E88
:101E9000655F50657263656E745F4C6F61645F412E
:101EA000745F43757272656E745F5370656564200C
:101EB000315F252F6269742030202500363134349B
:101EC000332038202035306D732045454332203291
:101ED0002031203820393120416363656C6572619F
:101EE000746F725F506564616C5F506F7369746981
:101EF0006F6E5F3120302E345F252F626974203081
:101F000020250036313434322038202031306D73B2
:101F100020455443312032203120313620313931AF
:101F2000205472616E736D697373696F6E5F4F7564
:101F3000747075745F53686166745F53706565642F
:101F400020302E3132355F72706D2F62697420300F
:101F50002072706D00363134343120382031303009
:101F60006D732045424331203820332032203239EE
:101F700031312048616C745F6272616B655F7377A9
:101F80006974636820345F7374617465732F325FA2
:101F90006269742030206269740036313434312033
:101FA00038203130306D73204542433120382035A0
:101FB0002032203138333620547261696C65725F8B
:101FC0004142535F53746174757320345F7374615D
:101FD0007465732F325F6269742030206269740007
:101FE00036313434312038203130306D7320454261
:101FF00043312036203720322031373933204154C5
:10200000432F4153525F496E666F726D6174696F01
:102010006E5F5369676E616C20345F7374617465C1
:10202000732F325F62697420302062697400363128
:102030003434312038203130306D73204542433103
:1020400020382037203220313739322054726163F2
:10205000746F722D4D6F756E7465645F5472616933
:102060006C65725F4142535F5761726E696E675F64
:102070005369676E616C20345F7374617465732F8C
:10208000325F626974203020626974003631343402
:10209000312038203130306D7320454243312037B4
:1020A00020312038203134383120536F7572636508
:1020B0005F416464726573735F6F665F436F6E74D4
:1020C000726F6C6C696E675F4465766963655F66A5
:1020D0006F725F4272616B655F436F6E74726F6C9B
:1020E00020313030306D736F757263655F61646489
:1020F000726573732F62697420302053410036314A
:102100003434312038203130306D73204542433132
:102110002036203320322031343339204542535F7A
:102120005265645F5761726E696E675F5369676E6F
:10213000616C20345F7374617465732F325F626900
:1021400074203020626974003631343431203820F4
:102150003130306D732045424331203620352032F6
:102160002031343338204142532F4542535F416D73
:102170006265725F5761726E696E675F5369676E01
:10218000616C5F28506F77657265645F566568693A
:10219000636C652920345F7374617465732F325FDB
:1021A0006269742030206269740036313434312021
:1021B00038203130306D7320454243312036203194
:1021C00020322031323433204142535F46756C6CEB
:1021D000795F4F7065726174696F6E616C20345FF6
:1021E0007374617465732F325F626974203020628A
:1021F00069740036313434312038203130306D7319
:1022000020454243312031203120322031323338D1
:10221000205472616374696F6E5F436F6E74726F86
:102220006C5F4F766572726964655F53776974633A
:102230006820345F7374617465732F325F626974F0
:102240002030206269740036313434312038203136
:1022500030306D7320454243312031203720322009
:1022600031313231204542535F4272616B655F53B9
:10227000776974636820345F7374617465732F3297
:102280005F62697420302062697400363134343101
:102290002038203130306D732045424331203520C5
:1022A0003120382039373320456E67696E655F52BB
:1022B000657461726465725F53656C656374696FA0
:1022C0006E20302E345F252F626974203020250067
:1022D00036313434312038203130306D732045426E
:1022E000433120342031203220393732204163639A
:1022F000656C657261746F725F496E7465726C6F44
:10230000636B5F53776974636820345F73746174BF
:1023100065732F325F626974203020626974003601
:10232000313434312038203130306D732045424310
:10233000312034203320322039373120456E67690F
:102340006E655F4465726174655F53776974636835
:1023500020345F7374617465732F325F6269742017
:102360003020626974003631343431203820313005
:10237000306D7320454243312034203520322039DE
:10238000373020456E67696E655F417578696C69A5
:102390006172795F53687574646F776E5F537769A4
:1023A00074636820345F7374617465732F325F6285
:1023B0006974203020626974003631343431203839
:1023C000203130306D732045424331203420372096
:1023D00032203936392052656D6F74655F41636311
:1023E000656C657261746F725F456E61626C655F8A
:1023F00053776974636820345F7374617465732FF5
:10240000325F62697420302062697400363134347E
:10241000312038203130306D732045424331203334
:102420002035203220353737204153525F48696CC0
:102430006C5F486F6C6465725F5377697463682082
:10244000345F7374617465732F325F626974203016
:102450002062697400363134343120382031303014
:102460006D732045424331203320332032203537ED
:1024700036204153525F4F66662D726F61645F5321
:10248000776974636820345F7374617465732F3285
:102490005F626974203020626974003631343431EF
:1024A0002038203130306D732045424331203320B5
:1024B00031203220353735204142535F4F66662D3B
:1024C000726F61645F53776974636820345F7374FB
:1024D000617465732F325F626974203020626974A1
:1024E0000036313434312038203130306D7320459E
:1024F0004243312031203520322035363320416EA1
:1025000074692D4C6F636B5F4272616B696E675FBC
:1025100028414253295F41637469766520345F73B3
:1025200074617465732F325F626974203020626950
:10253000740036313434312038203130306D73201E
:10254000454243312031203320322035363220417C
:1025500053525F4272616B655F436F6E74726F6C52
:102560005F41637469766520345F73746174657369
:102570002F325F6269742030206269740036313412
:1025800034312038203130306D73204542433120C2
:10259000312031203220353631204153525F456E93
:1025A00067696E655F436F6E74726F6C5F416374D1
:1025B00069766520345F7374617465732F325F626E
:1025C0006974203020626974003631343431203827
:1025D000203130306D73204542433120322031208C
:1025E0003820353231204272616B655F506564611D
:1025F0006C5F506F736974696F6E20302E345F2585
:102600002F62697420302025003537333434203868
:1026100020313030306D7320434D3120362033204F
:102620003220333639362044696573656C5F5061FA
:1026300072746963756C6174655F46696C74657208
:102640005F526567656E65726174696F6E5F466F34
:102650007263655F53776974636820345F73746174
:102660007465732F325F6269742030206269740070
:102670003537333434203820313030306D732043D7
:102680004D3120362031203220333639352044690F
:102690006573656C5F506172746963756C617465B4
:1026A0005F46696C7465725F526567656E657261DD
:1026B00074696F6E5F496E68696269745F537769A8
:1026C00074636820345F7374617465732F325F6262
:1026D000697420302062697400353733343420380F
:1026E00020313030306D7320434D3120382031207F
:1026F0003820323539362053656C65637465645F04
:102700004D6178696D756D5F56656869636C655F6D
:1027100053706565645F4C696D697420315F636FE8
:10272000756E742F626974203020636F756E74004B
:102730003537333434203820313030306D73204316
:102740004D31203420372032203138353620536542
:1027500061745F42656C745F537769746368203499
:102760005F7374617465732F325F62697420302007
:1027700062697400353733343420382031303030DA
:102780006D7320434D3120342035203220313731D4
:1027900034204F70657261746F725F536561745F4E
:1027A000446972656374696F6E5F537769746368B7
:1027B00020345F7374617465732F325F62697420B3
:1027C000302062697400353733343420382031309A
:1027D00030306D7320434D3120322031203136208E
:1027E00031363931204361625F496E746572696FB9
:1027F000725F54656D70657261747572655F436F69
:102800006D6D616E6420302E30333132355F64651A
:10281000675F432F626974202D32373320430035C0
:1028200037333434203820313030306D7320434D0D
:10283000312037203720322031363836205265712A
:10284000756573745F4361625F5A6F6E655F48655B
:102850006174696E6720345F7374617465732F32BD
:102860005F62697420302062697400353733343414
:10287000203820313030306D7320434D31203720E7
:1028800035203220313638352052657175657374C4
:102890005F456E67696E655F5A6F6E655F4865611B
:1028A00074696E6720345F7374617465732F325F6F
:1028B0006269742030206269740035373334342003
:1028C0003820313030306D7320434D312034203189
:1028D0002032203136383420417578696C69617254
:1028E000795F4865617465725F436F6F6C616E7488
:1028F0005F50756D705F5265717565737420345FDC
:102900007374617465732F325F6269742030206262
:102910006974003537333434203820313030306D2D
:102920007320434D31203720312034203136383365
:1029300020417578696C696172795F486561746579
:10294000725F4D6F64655F52657175657374203198
:10295000365F7374617465732F345F6269742030FD
:1029600020626974003537333434203820313030F8
:10297000306D7320434D31203420332032203136E6
:10298000383220426174746572795F4D61696E5F9F
:102990005377697463685F486F6C645F52657175E3
:1029A00065737420345F7374617465732F325F6272
:1029B000697420302062697400353733343420382C
:1029C00020313030306D7320434D3120362035209A
:1029D000322031363636204175746F6D617469630B
:1029E0005F476561725F5368696674696E675F45CA
:1029F0006E61626C655F53776974636820345F73DE
:102A000074617465732F325F62697420302062696B
:102A100074003537333434203820313030306D7322
:102A200020434D31203620372032203136353620B4
:102A3000456E67696E655F4175746F6D617469633A
:102A40005F53746172745F456E61626C655F53774A
:102A50006974636820345F7374617465732F325FC7
:102A60006269742030206269740035373334342051
:102A70003820313030306D7320434D3120352033D4
:102A8000203220313635352056656869636C655FC4
:102A90004C696D6974696E675F53706565645F4703
:102AA0006F7665726E6F725F44656372656D656E99
:102AB000745F53776974636820345F7374617465FD
:102AC000732F325F62697420302062697400353779
:102AD000333434203820313030306D7320434D3161
:102AE000203520352032203136353420566568694E
:102AF000636C655F4C696D6974696E675F5370657F
:102B000065645F476F7665726E6F725F496E637260
:102B1000656D656E745F53776974636820345F73A5
:102B200074617465732F325F62697420302062694A
:102B300074003537333434203820313030306D7301
:102B400020434D3120352037203220313635332097
:102B500056656869636C655F4C696D6974696E6719
:102B60005F53706565645F476F7665726E6F725F05
:102B7000456E61626C655F53776974636820345F8A
:102B80007374617465732F325F62697420302062E0
:102B90006974003537333434203820313030306DAB
:102BA0007320434D312031203120382039383620F0
:102BB0005265717565737465645F50657263656EA7
:102BC000745F46616E5F537065656420302E345FBC
:102BD000252F6269742030202500353332343820A7
:102BE0003820203130306D732020434C203120318B
:102BF0002038203134383720496C6C756D696E612E
:102C000074696F6E5F4272696768746E6573735F33
:102C100050657263656E7420302E345F252F6269B3
:102C200074203020250032353620382020203530E1
:102C30006D7320544331203620372032203138350F
:102C400035205472616E736D697373696F6E5F4D79
:102C50006F64655F3420345F7374617465732F3201
:102C60005F62697420302062697400323536203822
:102C700020202035306D73205443312036203520FC
:102C8000322031383534205472616E736D6973733C
:102C9000696F6E5F4D6F64655F3320345F7374617D
:102CA0007465732F325F626974203020626974002A
:102CB00032353620382035306D7320544331203280
:102CC0002031203820363834205265717565737490
:102CD00065645F50657263656E745F436C757463A1
:102CE000685F536C697020302E345F252F626974E1
:102CF0002030202500302038202020202031306D49
:102D00007320545343312032203120313620203873
:102D1000393820456E67696E655F526571756573F8
:102D20007465645F53706565642F53706565645F97
:102D30004C696D697420302E3132355F72706D2FA1
:102D400062697420302072706D003020382020209D
:102D5000202031306D7320545343312034203120F2
:102D600038202035313820456E67696E655F5265C1
:102D7000717565737465645F546F727175652F54F6
:102D80006F727175655F4C696D697420315F252FB5
:102D9000626974202D3132352025002D202D202010
:102DA0002020202D2D2D2D202D2D2D2D202D202DA1
:102DB000202D202D2D2D202D202D202D202D009B50
:102DC0002D4A2DF52CB02C6B2C262CDA2B932B3284
:102DD0002BCE2A6A2A122AB92965291329BA286B07
:102DE000281F28C62774273027D92670260926C908
:102DF000257D253225E1249B2455240C24B9236606
:102E0000231F23D0228B224722F321AA214821FE0F
:102E1000208C202E20E01F9A1F551F031FBC1E6F01
:102E20001E301EDC1D911D4B1DD81C901C441CE83F
:102E30001B9F1B471BEE1A9F1A5D1A0A1AC1196CB9
:102E4000191819C91875181E18B01759171117B67F
:102E500016631604169B153E15F31494144114DEE4
:102E6000137A131213CC127A121E12D8117E110B80
:102E700011A61054100D10B70F520FFC0EA30E4ADE
:102E80000EEC0D900D3A0DE50C930C600C2E0CFF22
:102E90000BCA0B930B5C0B120BC90A790A2C0AE7BD
:102EA00009AA0967092409DD089B084B080308BD26
:102EB0000778071F07DC0690064106EE05A80553B4
:102EC000050505BE0466041D04CE0396034C03638A
:102ED00064696E6F70737578585B0000407A10F308
:102EE0005A00A0724E18090010A5D4E80000E87638
:102EF00048170000E40B54020000CA9A3B0000008F
:102F0000E1F505000080969800000040420F0000A7
:102F100000A08601000000102700000000E8030068
:102F20000000006400000000000A00000000000132
:102F300000000000002C76D888DC674F0823DFC132
:102F4000DFAE59E1B1B796E5E3E453C63AE65199ED
:102F50007696E8E6C28426EB898C9B62ED407C6F16
:102F6000FCEFBC9C9F40F2BAA56FA5F490055A2ACD
:102F7000F75C936B6CF9676DC11BFCE0E40D47FED9
:102F8000F520E6B500D0ED902E03009435770500CE
:102F900080841E080000204E0A000000C80C333355
:102FA00033330F986E12831141EF8D2114893BE664
:102FB0005516CFFEE6DB18D1844B381BF77C1D90ED
:102FC0001DA4BBE424203284725E228100C9F12456
:102FD000ECA1E53D27009A5A11241FBECFEFD1E2A4
:102FE000DEBFCDBF00E00CBF18E0A0E0B2E0E6ED30
:102FF000F3ED00E00BBF02C007900D92A03AB107BD
:10300000D9F721E1A0EAB8E001C01D92AC34B207C3
:10301000E1F717E1CCEED7E100E006C02197010906
:10302000802FFE010E94985BCB3ED10780E008070D
:10303000A9F70E94E0530C94E9690C940000CF9327
:10304000DF93CDB7DEB767970FB6F894DEBF0FBE3C
:10305000CDBF0E94D8379987888744244A94F3E0EB
:103060005F2E612C712C8091010290910202A0913F
:103070000302B0910402E2E0B595A7959795879574
:10308000EA95D1F78093D90E9093DA0EA093DB0ED8
:10309000B093DC0E8091D90E9091DA0EA091DB0EE8
:1030A000B091DC0E8233910508F047C0FC018827FF
:1030B000EE58FF4F8F4F0C94985B86E10E94A83228
:1030C00040E060E0892B89F48CE993E00E94483D60
:1030D00041E060E08DEA93E00E94483D68EB7BE0D0
:1030E00080E090E00E945A3328C08EEB93E00E946B
:1030F000483D80910002882339F042E350E061E0CE
:1031000080ED93E00E9427501092000241E060E0C1
:1031100080EF93E00E94483D1092070D10926809DD
:103120008091140D14E0819FC001112490930D0D26
:1031300080930C0D80E00E949D4B5AE0252E5DE0AF
:10314000352E66E3D62EE12CF12C7EE0C72E0C94B2
:103150001A2180910C0D90910D0D2091140D30E0ED
:1031600096958795969587952817390769F48091E4
:103170006C0A40E060E080FF03C081E094E002C0A0
:103180008DE796E00E94483D20910E0D30910F0D85
:1031900080910C0D90910D0D96958795969587953C
:1031A0002817390711F00C94D3268091070D813030
:1031B00011F00C94D326C1CF8091150D9091160D6E
:1031C00020911D0D30E09695879596958795281747
:1031D000390769F480916C0A40E060E080FF03C029
:1031E0008AEC95E002C08DE796E00E94483D209170
:1031F000170D3091180D8091150D9091160D969523
:103200008795969587952817390711F00C94112703
:103210008091070D823011F00C9411278ECF809190
:103220001E0D90911F0D2091260D30E096958795EB
:10323000969587952817390769F480916C0A40E0C4
:1032400060E080FF03C081EC95E002C08DE796E06E
:103250000E94483D2091200D3091210D80911E0D3E
:1032600090911F0D96958795969587952817390704
:1032700011F00C9459278091070D833011F00C94B4
:1032800059275BCF8091270D9091280D20912F0D0C
:1032900030E096958795969587952817390769F4B4
:1032A00080916C0A40E060E080FF03C086E394E018
:1032B00002C08DE796E00E94483D2091290D309193
:1032C0002A0D8091270D9091280D969587959695BA
:1032D00087952817390711F00C94A1278091070DC5
:1032E000843011F00C94A12728CF8091300D90915B
:1032F000310D2091380D30E09695879596958795FC
:103300002817390769F480916C0A40E060E080FF7B
:1033100003C08BE997E002C08DE796E00E94483D2C
:103320002091320D3091330D8091300D9091310DFF
:1033300096958795969587952817390711F00C94DF
:10334000E9278091070D853011F00C94E927F5CE1F
:103350008091390D90913A0D2091410D30E0969574
:103360008795969587952817390769F480916C0A97
:1033700040E060E080FF03C08AE594E002C08DE792
:1033800096E00E94483D20913B0D30913C0D80918C
:10339000390D90913A0D96958795969587952817B2
:1033A000390711F00C9431288091070D863011F007
:1033B0000C943128C2CE2091440D3091450D80915E
:1033C000420D9091430D9695879596958795281770
:1033D000390711F00C9479288091070D873011F08E
:1033E0000C947928AACE20914D0D30914E0D8091EC
:1033F0004B0D90914C0D969587959695879528172E
:10340000390711F00C9476298091070D883011F05E
:103410000C94762992CE2091560D3091570D8091C3
:10342000540D9091550D96958795969587952817EB
:10343000390711F00C94182A8091070D893011F08A
:103440000C94182A7ACE20915F0D3091600D8091F6
:103450005D0D90915E0D96958795969587952817A9
:10346000390711F00C94472A8091070D8A3011F02A
:103470000C94472A62CE2091680D3091690D80919D
:10348000660D9091670D9695879596958795281767
:10349000390711F00C94762A8091070D8B3011F0CA
:1034A0000C94762A4ACE2091710D3091720D809144
:1034B0006F0D9091700D9695879596958795281725
:1034C000390711F00C94A52A8091070D8C3011F06A
:1034D0000C94A52A32CE20917A0D30917B0D8091EB
:1034E000780D9091790D96958795969587952817E3
:1034F000390711F00C94D42A8091070D8D3011F00A
:103500000C94D42A1ACE4091830D5091840D809151
:10351000810D9091820D969587959695879520912E
:10352000070D4817590711F00C94032B2E3011F09A
:103530000C94032B02CE20918C0D30918D0D809137
:103540008A0D90918B0D969587959695879528175E
:10355000390711F00C94362B8091070D8F3011F044
:103560000C94362BEACD2091950D3091960D8091DB
:10357000930D9091940D969587959695879528171C
:10358000390711F00C94922B8091070D803111F0C6
:103590000C94922BD2CD20919E0D30919F0D809155
:1035A0009C0D90919D0D96958795969587952817DA
:1035B000390711F00C9443298091070D813111F0E6
:1035C0000C944329BACD80916C0A1F928F938091FD
:1035D0006D0A1F928F9380916E0A1F928F9382E5DE
:1035E00095E09F938F938CE899E09F938F930E942F
:1035F000195F40E060E08CE899E00E94483D20912E
:10360000A70D3091A80D8091A50D9091A60D9695CE
:103610008795969587950FB6F894DEBF0FBECDBF00
:103620002817390729F48091070D823109F450C019
:103630008091A50D9091A60D969587959695879565
:10364000809721F41092A60D1092A50D4091B70D10
:103650005091B80D2091AE0D3091AF0D8091A50D18
:103660009091A60D56954795569547955F934F9324
:1036700036952795369527953F932F939695879561
:10368000969587959F938F9389E695E09F938F9367
:103690008CE899E09F938F930E94195F41E060E06E
:1036A0008CE899E00E94483D82E10E949D4B809108
:1036B000A50D9091A60D96958795969587959093D3
:1036C000A80D8093A70D0FB6F894DEBF0FBECDBF37
:1036D00082E16BC580916C0A1F928F9380916D0A75
:1036E0001F928F9380916E0A1F928F938CE795E0C3
:1036F0009F938F938CE799E09F938F930E94195F1C
:1037000040E060E08CE799E00E94483D2091B00DD8
:103710003091B10D8091AE0D9091AF0D969587953A
:10372000969587950FB6F894DEBF0FBECDBF2817CC
:10373000390729F48091070D833109F450C0809135
:10374000AE0D9091AF0D96958795969587950D97AF
:1037500021F41092AF0D1092AE0D4091B70D509123
:10376000B80D2091AE0D3091AF0D8091A50D9091C7
:10377000A60D56954795569547955F934F93369569
:103780002795369527953F932F93969587959695F0
:1037900087959F938F9381E995E09F938F938CE713
:1037A00099E09F938F930E94195F41E060E08CE75E
:1037B00099E00E94483D83E10E949D4B8091AE0DAF
:1037C0009091AF0D96958795969587959093B10DAD
:1037D0008093B00D0FB6F894DEBF0FBECDBF83E16E
:1037E000E4C480916C0A1F928F9380916D0A1F929E
:1037F0008F9380916E0A1F928F938CE795E09F9331
:103800008F938CE699E09F938F930E94195F40E01D
:1038100060E08CE699E00E94483D2091B90D30911E
:10382000BA0D8091B70D9091B80D969587959695A4
:1038300087950FB6F894DEBF0FBECDBF28173907A6
:1038400029F48091070D843109F44FC08091B70DA0
:103850009091B80D88309F4130F484E09FE19093BF
:10386000B80D8093B70D4091B70D5091B80D2091D0
:10387000AE0D3091AF0D8091A50D9091A60D56958E
:103880004795569547955F934F933695279536956F
:1038900027953F932F9396958795969587959F9318
:1038A0008F9384EA95E09F938F938CE699E09F93A2
:1038B0008F930E94195F41E060E08CE699E00E94DE
:1038C000483D84E10E949D4B8091B70D9091B80DC9
:1038D00096958795969587959093BA0D8093B90D97
:1038E0000FB6F894DEBF0FBECDBF84E15EC48091F9
:1038F000070D853111F00E9424504091D90E50914E
:10390000DA0E6091DB0E7091DC0E4F5051096109A7
:1039100071092BE0249FC001259F900D112440E0E8
:1039200060E0845D904F0E94483D40E069E087EB95
:1039300095E00E94483DF12C00E010E03EE0E32ECF
:103940008091D90E9091DA0EA091DB0EB091DC0E31
:103950000F97A109B109E89EF001E99EF00D11242D
:10396000E052F64FE00FF11F868140E1BE016F5F2C
:103970007F4F90E00E94A7668091D90E9091DA0E59
:10398000A091DB0EB091DC0E0F97A109B109E89E62
:10399000F001E99EF00D1124E052F64FE00FF11F07
:1039A000868141E0813120F06F2DCE0101960AC061
:1039B00061E06F0DCE0101960E94483D41E06F2D00
:1039C0008DEF94E00E94483D0F5F1F4FF394F394F6
:1039D000F0E1FF12B5CF85E10E949D4B85E1E5C383
:1039E0008091070D863111F00E9424504091D90E2C
:1039F0005091DA0E6091DB0E7091DC0E4F50510940
:103A0000610971092BE0249FC001259F900D1124AD
:103A100040E060E0845D904F0E94483D40E069E0F6
:103A20008CEB95E00E94483DF12C00E010E02EE088
:103A3000E22E8091D90E9091DA0EA091DB0EB0911A
:103A4000DC0E0F97A109B109E89EF001E99EF00D87
:103A50001124E052F64FE00FF11F868140E1BE01D4
:103A60006F5F7F4F90E00E94A7668091D90E909182
:103A7000DA0EA091DB0EB091DC0E0F97A109B1090F
:103A8000E89EF001E99EF00D1124E052F64FE00FA0
:103A9000F11F868141E0813120F06F2DCE0101962A
:103AA0000AC061E06F0DCE0101960E94483D41E0E1
:103AB0006F2D8DEF94E00E94483D0F5F1F4FF394F0
:103AC000F39420E1F212B5CF86E10E949D4B86E18E
:103AD0006CC38091070D873111F00E9424504091F2
:103AE000D90E5091DA0E6091DB0E7091DC0E4F50C2
:103AF0005109610971092BE0249FC001259F900D98
:103B0000112440E060E0845D904F0E94483D40E019
:103B100069E083EC95E00E94483DF12C00E010E064
:103B20009EE0E92E8091D90E9091DA0EA091DB0EE5
:103B3000B091DC0E0F97A109B109E89EF001E99E52
:103B4000F00D1124E052F64FE00FF11F868140E1A5
:103B5000BE016F5F7F4F90E00E94A7668091D90EF3
:103B60009091DA0EA091DB0EB091DC0E0F97A109B7
:103B7000B109E89EF001E99EF00D1124E052F64FE4
:103B8000E00FF11F868141E0813120F06F2DCE01E1
:103B900001960AC061E06F0DCE0101960E94483D7A
:103BA00041E06F2D8DEF94E00E94483D0F5F1F4F65
:103BB000F394F39430E1F312B5CF87E10E949D4B6B
:103BC00087E1F3C28091070D883111F00E942450E3
:103BD0004091D90E5091DA0E6091DB0E7091DC0E9F
:103BE0004F505109610971092BE0249FC001259FA5
:103BF000900D112440E060E0845D904F0E94483DAC
:103C000040E069E088EC95E00E94483DF12C00E03E
:103C100010E08EE0E82E8091D90E9091DA0EA091FE
:103C2000DB0EB091DC0E0F97A109B109E89EF001FF
:103C3000E99EF00D1124E052F64FE00FF11F86814E
:103C400040E1BE016F5F7F4F90E00E94A7668091C8
:103C5000D90E9091DA0EA091DB0EB091DC0E0F9789
:103C6000A109B109E89EF001E99EF00D1124E0528E
:103C7000F64FE00FF11F868141E0813120F06F2D7A
:103C8000CE0101960AC061E06F0DCE0101960E943F
:103C9000483D41E06F2D8DEF94E00E94483D0F5F5D
:103CA0001F4FF394F39440E1F412B5CF88E10E94E2
:103CB0009D4B88E17AC28091070D893141F00E94C5
:103CC000245040E060E08CEC95E00E94483D89E1A2
:103CD0000E949D4B89E169C24091EF0D5091F00D1A
:103CE0008091ED0D9091EE0D96958795969587951F
:103CF0002091070D4817590711F00C94BD2C2A315B
:103D000011F00C94BD2C19CA4091F80D5091F90D89
:103D10008091F60D9091F70D9695879596958795DC
:103D20002091070D4817590711F00C94012D2B31E4
:103D300011F00C94012D01CA4091010E5091020E18
:103D40008091FF0D9091000E969587959695879599
:103D50002091070D4817590711F00C94502D2C3164
:103D600011F00C94502DE9C940910A0E50910B0EA0
:103D70008091080E9091090E969587959695879556
:103D80002091070D4817590711F00C949F2D2D31E4
:103D900011F00C949F2DD1C92091130E3091140E67
:103DA0008091110E9091120E969587959695879514
:103DB0002817390711F00C94ED2D8091070D8E31E5
:103DC00011F00C94ED2DB9C920911C0E30911D0EEF
:103DD00080911A0E90911B0E9695879596958795D2
:103DE0002817390711F00C94122E8091070D8F318E
:103DF00011F00C94122EA1C92091250E3091260E9F
:103E00008091230E9091240E96958795969587958F
:103E10002817390711F00C943A2E8091070D803243
:103E200011F00C943A2E89C920912E0E30912F0E4C
:103E300080912C0E90912D0E96958795969587954D
:103E40002817390711F00C945F2E8091070D8132ED
:103E500011F00C945F2E71C94091370E5091380EBD
:103E60008091350E9091360E96958795969587950B
:103E70002091070D4817590711F00C94842E223217
:103E800011F00C94842E59C94091400E5091410E6E
:103E900080913E0E90913F0E9695879596958795C9
:103EA0002091070D4817590711F00C94F92E233271
:103EB00011F00C94F92E41C92091490E30914A0E0F
:103EC0008091470E9091480E969587959695879587
:103ED0002817390711F00C940E2F8091070D8432AA
:103EE00011F00C940E2F29C92091520E3091530ECF
:103EF0008091500E9091510E969587959695879545
:103F00002817390711F00C94122F8091070D853274
:103F100011F00C94122F11C920915B0E30915C0EA0
:103F20008091590E90915A0E969587959695879502
:103F30002817390711F00C94162F8091070D86323F
:103F400011F00C94162FF9C84091640E5091650E33
:103F50008091620E9091630E9695879596958795C0
:103F60002091070D4817590711F00C941D2F273287
:103F700011F00C941D2FE1C840916D0E50916E0E02
:103F800080916B0E90916C0E96958795969587957E
:103F90002091070D4817590711F00C94252F28324E
:103FA00011F00C94252FC9C84091760E5091770ED0
:103FB0008091740E9091750E96958795969587953C
:103FC0002091070D4817590711F00C94392F293209
:103FD00011F00C94392FB1C840917F0E5091800E92
:103FE00080917D0E90917E0E9695879596958795FA
:103FF0002091070D4817590711F00C943C2F2A32D5
:1040000011F00C943C2F99C84091880E5091890E64
:104010008091860E9091870E9695879596958795B7
:104020002091070D4817590711F00C943F2F2B32A0
:1040300011F00C943F2F81C84091910E5091920E37
:1040400080918F0E9091900E969587959695879575
:104050002091070D4817590711F00C94422F2C326C
:1040600011F00C94422F69C840919A0E50919B0E0A
:104070008091980E9091990E969587959695879533
:104080002091070D4817590711F00C94452F2D3238
:1040900011F00C94452F51C84091A30E5091A40EDD
:1040A0008091A10E9091A20E9695879596958795F1
:1040B0002091070D4817590711F00C94482F2E3204
:1040C00011F00C94482F39C84091AC0E5091AD0EB0
:1040D0008091AA0E9091AB0E9695879596958795AF
:1040E0002091070D4817590711F00C944B2F2F32D0
:1040F00011F00C944B2F21C84091B50E5091B60E83
:104100008091B30E9091B40E96958795969587956C
:104110002091070D4817590711F00C944E2F2033AA
:1041200011F00C944E2F09C84091BE0E5091BF0E55
:104130008091BC0E9091BD0E96958795969587952A
:104140002091070D4817590711F00C949A2F21332D
:1041500011F00C949A2F0C949D1880914B0D909116
:104160004C0D9695879596958795019711F00C942F
:104170009D2940E069E089EC94E00E94483D41E0DF
:1041800069E089EC94E00E94483D88E00E949D4BE4
:1041900080914B0D90914C0D9695879596958795AE
:1041A00090934E0D80934D0D88E08093070D0C94F5
:1041B0009D18612F70E080E090E00E94DA5B9B0127
:1041C000AC0160E070E080E090E40E94405C6E87AB
:1041D0007F87888B998BF1013297A080319600817F
:1041E000B12C103261F58D2D0E943B33DC012FEF95
:1041F0003FEF4FEF5AEF0E94B269A30192010E9474
:104200008C69CE9CF001CF9CF00D1124E052F64F4A
:10421000EA0DFB1D2583368347835087BFEFEB1ADA
:10422000FB0AE9E02E0E311CD394F6E0EF16F10400
:1042300009F4A2C0D1011C91112381F3BACF10312E
:10424000C1F48D2D0E943B332FEF3AEFDC010E9429
:10425000A75BA30192010E948C69CE9CF001CF9CC8
:10426000F00D1124E052F64FEA0DFB1D2583368335
:10427000D5CF183029F020E030E0123019F405C015
:104280002AEF30E080E090E002C083E090E0820F0F
:10429000931F143019F020E030E002C02FE030E02E
:1042A000820F931F21E030E0113011F020E030E068
:1042B0004C01820E931E8D2D0E943B332091D90E0E
:1042C0003091DA0E4091DB0E5091DC0E2A873B874D
:1042D0004C875D8731E0A31AB10810E00150110945
:1042E000CE9C9001CF9C300D11242052364FA90155
:1042F0004A0D5B1D5B8B4A8B9C01D4010E94A05B25
:10430000A30192010E948C69DA01C901002E04C048
:10431000880F991FAA1FBB1F0A94D2F78C8B9D8B05
:10432000AE8BBF8B6E857F85888999890E94AE5B35
:10433000DC01CB0104C0880F991FAA1FBB1F0A957F
:10434000D2F7682F60958A859B85AC85BD850197DE
:10435000A109B109C89EF001C99EF00D1124E052D7
:10436000F64FEA0DFB1D268162238C88862AAA89D6
:10437000BB8916968C9252CF87E10E94A832892B76
:1043800009F037C38091D90E9091DA0EA091DB0E1F
:10439000B091DC0E4097A105B10531F48CEF93E0AC
:1043A0009093940D8093930D8091D90E9091DA0E95
:1043B000A091DB0EB091DC0EC197A105B10531F4DF
:1043C0008CEF93E09093BD0E8093BC0E8091D90E3C
:1043D0009091DA0EA091DB0EB091DC0E8397A105CF
:1043E000B10539F480E090E890933F0E80933E0E43
:1043F00036C08091D90E9091DA0EA091DB0EB0916B
:10440000DC0E8497A105B10529F41092480E109294
:10441000470E25C08091D90E9091DA0EA091DB0E47
:10442000B091DC0E8597A105B10539F488E190E0E3
:104430009093510E8093500E12C08091D90E90919E
:10444000DA0EA091DB0EB091DC0E8697A105B105C6
:1044500031F480E190E090935A0E8093590E809150
:10446000D90E9091DA0EA091DB0EB091DC0E409146
:10447000D90E5091DA0E6091DB0E7091DC0E413155
:1044800051056105710521F00797A105B10521F4DA
:1044900061E087E00E94FF328091D90E9091DA0EA0
:1044A000A091DB0EB091DC0E892B8A2B8B2B61F453
:1044B00024E630E040E050E0209301023093020215
:1044C000409303025093040280EC99E00E948366BB
:1044D000A091E009B091E1092090EE093090EF0938
:1044E0006091FC097091FD0940910A0A50910B0AF4
:1044F0002091180A3091190AE090260AF090270AB4
:104500008090D90E9090DA0EA090DB0EB090DC0E69
:1045100001E02816390609F400E011E0A817B907F0
:1045200009F410E0102301E06817790709F400E0AE
:10453000012311E04817590709F410E0102301E0A6
:104540002817390709F400E0012311E0E816F906FD
:1045500009F410E0D02ED122E1E08E1A9108A108D2
:10456000B108EEE0CE2EC89C8001C99C100D11242C
:104570000052164FCC24C394F80100811181081712
:10458000190709F0C12C1D2D1C29A817B90719F40A
:1045900061E074E01DC02816390619F46AEC75E074
:1045A00017C06817790719F461EC75E011C0481756
:1045B000590719F466E374E00BC02817390719F49A
:1045C0006BE977E005C0E816F90631F46AE574E0B6
:1045D000CE0101960E94125F112331F14091D90E54
:1045E0005091DA0E6091DB0E7091DC0E8091D90E45
:1045F0009091DA0EA091DB0EB091DC0E29E0289F9D
:10460000F001299FF00D1124ED5FF24F808191811F
:10461000249FF001259FF00D1124ED5FF24F969538
:1046200087959695879580874091D90E5091DA0E9F
:104630006091DB0E7091DC0E8091D90E9091DA0EB4
:10464000A091DB0EB091DC0E29E0289FF001299F9C
:10465000F00D1124ED5FF24F808191819695879541
:1046600096958795892B09F463C1473051056105FB
:1046700071050CF05DC1112309F446C1C090D90E3B
:10468000D090DA0EE090DB0EF090DC0E80EC99E03A
:104690000E948366F1E0CF1AD108E108F1082EE00C
:1046A0002C9DF0012D9DF00D1124E052F64F9183C9
:1046B00080838091D90E9091DA0EA091DB0EB0919B
:1046C000DC0E0197A109B109289FF001299FF00D87
:1046D0001124E052F64F2081318180916A09909136
:1046E0006B0928173907B9F180E090E03EE02FEF21
:1046F0004091D90E5091DA0E6091DB0E7091DC0E74
:104700004150510961097109349FF001359FF00D45
:104710001124E052F64FE80FF91F268301968830E6
:10472000910531F78091D90E9091DA0EA091DB0EB0
:10473000B091DC0E0197A109B1092EE0289FF0018C
:10474000299FF00D1124E052F64F808191819093C2
:104750006B0980936A09C090D90ED090DA0EE09070
:10476000DB0EF090DC0E88EB99E00E94836611E08E
:10477000C11AD108E108F1082EE02C9DF0012D9D11
:10478000F00D1124E052F64F93838283C090D90E2E
:10479000D090DA0EE090DB0EF090DC0E83EB99E027
:1047A0000E94836621E0C21AD108E108F10819E0ED
:1047B0001C9DF0011D9DF00D1124ED5FF24F8583CE
:1047C000C090D90ED090DA0EE090DB0EF090DC0EA7
:1047D0008EEA99E00E94836631E0C31AD108E108AD
:1047E000F1081C9DF0011D9DF00D1124ED5FF24FAD
:1047F0008683C090D90ED090DA0EE090DB0EF09058
:10480000DC0E84EA99E00E94836641E0C41AD10874
:10481000E108F1081C9DF0011D9DF00D1124ED5FD4
:10482000F24F87838091D90E9091DA0EA091DB0E22
:10483000B091DC0E0197A109B109880F991FFC0105
:10484000EB53F64F008111810115110511F40E94FF
:104850002B418091F40A9091F50A0817190709F481
:104860003BC00FB6F8940F92D8011A968D919C9187
:104870001B978658904171F5F80184899589F0E17C
:1048800088399F0739F1892B29F57801E2E0EE0E8E
:10489000F11CC7010E943D40D80156968C91909121
:1048A000F30A981710F48093F30A29E0829FC0015D
:1048B0001124B7018153954F0E949840E091F40A6A
:1048C000F091F50AD80156969C918689981710F0B8
:1048D0000E94DC3F0F900FBE68EE73E080E090E036
:1048E0000E945A338091B30E9091B40E969587959D
:1048F000969587950197E1F444E650E060E080EA00
:1049000098E00E94275014C00E94245040E060E0CC
:1049100081ED96E00E94483D40E06CE0CE010196BA
:104920000E94483D68EE73E080E090E00E945A33B8
:104930004091D90E5091DA0E6091DB0E7091DC0E31
:10494000C090D90ED090DA0EE090DB0EF090DC0E25
:104950008091D90E9091DA0EA091DB0EB091DC0E11
:1049600029E0289FF001299FF00D1124ED5FF24FFF
:104970002081318191E01C141D041E041F040CF0E1
:1049800090E081E047305105610571050CF080E051
:104990008923D9F0C9019695879596958795892B96
:1049A000A1F48091D90E9091DA0EA091DB0EB09116
:1049B000DC0E0197A109B109880F991FFC01EB5387
:1049C000F64F808191810E948C388091D90E909110
:1049D000DA0EA091DB0EB091DC0E29E0289FF001E9
:1049E000299FF00D1124ED5FF24F83E690E0938351
:1049F000828386E10E94A832AC01C090D90ED0908B
:104A0000DA0EE090DB0EF090DC0E8091D90E9091E2
:104A1000DA0EA091DB0EB091DC0E21E0181619061B
:104A20001A061B060CF020E091E0B7E0CB16D1048B
:104A3000E104F1040CF090E092232091680999239D
:104A400011F0452B91F12130A1F187E10E94A832AC
:104A5000AC01C090D90ED090DA0EE090DB0EF09051
:104A6000DC0E8091D90E9091DA0EA091DB0EB09100
:104A7000DC0E21E08297A105B1050CF020E091E069
:104A8000EAE1CE16D104E104F1040CF490E029230C
:104A900091E0452B09F090E029238091690990E08D
:104AA000822B892B09F41AC17CC0211102C00E94FB
:104AB000245088E090E090934C0D80934B0D81E062
:104AC0008093680940E060E08DED96E00E94483DEB
:104AD0004091D90E5091DA0E6091DB0E7091DC0E90
:104AE00041505109610971092BE0249FC001259FA4
:104AF000900D112440E068E0845D904F0E94483D95
:104B0000F12C00E010E06EE0E62E8091D90E90913D
:104B1000DA0EA091DB0EB091DC0E0197A109B1096C
:104B2000E89EF001E99EF00D1124E052F64FE00FEF
:104B3000F11F868140E1BE016F5F7F4F90E00E94D0
:104B4000A7668091D90E9091DA0EA091DB0EB091FC
:104B5000DC0E0197A109B109E89EF001E99EF00D74
:104B60001124E052F64FE00FF11F868141E08131C0
:104B700020F06F2DCE0101960AC061E06F0DCE01CD
:104B800001960E94483D41E06F2D8DEF94E00E9418
:104B9000483D0F5F1F4FF394F394F0E1FF12B5CF40
:104BA00054CF81E08093690960E08BE00E94D032AD
:104BB0008091110E9091120E9695879596958795F6
:104BC000019711F460E001C061E08EE30E94D032F1
:104BD00080911A0E90911B0E9695879596958795C4
:104BE000019711F460E001C061E08FE30E94D032D0
:104BF0008091230E9091240E969587959695879592
:104C0000019711F460E001C061E080E40E94D032BD
:104C100080912C0E90912D0E96958795969587955F
:104C2000019711F460E001C061E081E40E94D0329C
:104C300020912C0E30912D0E8091230E9091240EF8
:104C400040911A0E50911B0E6091110E7091120E30
:104C50003695279536952795440F440F240F820FDC
:104C600010E1619F800D11248093560A2FEF20934D
:104C7000570A8091ED0D9091EE0D9695879596953A
:104C800087958093580A8091ED0D9091EE0D892FB4
:104C9000869586958093590A8091F60D9091F70D2F
:104CA000969587959695879580935A0A4091FF0D22
:104CB0005091000E8091080E9091090E56954795DF
:104CC0005695479505E0880F991F0A95E1F7842BC3
:104CD00080935B0A20935C0A20935D0A86E10E9420
:104CE000A8324091D90E5091DA0E6091DB0E70918E
:104CF000DC0E892B59F4433251056105710531F4FD
:104D00008CE290E890933F0E80933E0E86E10E94E5
:104D1000A832AC01C090D90ED090DA0EE090DB0E34
:104D2000F090DC0E8091D90E9091DA0EA091DB0EFE
:104D3000B091DC0E21E08297A105B1050CF020E0D6
:104D400091E03AE1C316D104E104F1040CF490E0DF
:104D5000922309F1452BF9F461E08BE00E94D032F7
:104D600061E08EE30E94D03261E08FE30E94D03296
:104D700061E080E40E94D03261E081E40E94D032A0
:104D80008EE0EDE2F2E0A0E5BAE001900D928A95A6
:104D9000E1F71092690962E370E0CE0108960E9483
:104DA000DD380C9433184091D90E5091DA0E609191
:104DB000DB0E7091DC0E89E0849FF001859FF00D81
:104DC0001124ED5FF24F208131812032324098F082
:104DD0004091D90E5091DA0E6091DB0E7091DC0E8D
:104DE000849FF001859FF00D1124ED5FF24F8CE15F
:104DF00092E09183808380910C0D90910D0D95959B
:104E00008795959587950E944D4E40E060E083E040
:104E100094E00E94483D81E00E94CA4B81E00C94DE
:104E20009B184091D90E5091DA0E6091DB0E709173
:104E3000DC0E89E0849FF001859FF00D1124ED5F69
:104E4000F24F208131812032324098F04091D90ECA
:104E50005091DA0E6091DB0E7091DC0E849FF001B0
:104E6000859FF00D1124ED5FF24F8CE192E091836C
:104E700080838091140D24E0829FC00111249093BF
:104E80000D0D80930C0D8091150D9091160D95953B
:104E90008795959587950E944D4E40E060E084E1AE
:104EA00094E00E94483D82E00E94CA4B82E00C944C
:104EB0009B184091D90E5091DA0E6091DB0E7091E3
:104EC000DC0E89E0849FF001859FF00D1124ED5FD9
:104ED000F24F208131812032324098F04091D90E3A
:104EE0005091DA0E6091DB0E7091DC0E849FF00120
:104EF000859FF00D1124ED5FF24F8CE192E09183DC
:104F0000808380911D0D34E0839FC0011124909314
:104F1000160D8093150D80911E0D90911F0D959586
:104F20008795959587950E944D4E40E060E085E21B
:104F300094E00E94483D83E00E94CA4B83E00C94B9
:104F40009B184091D90E5091DA0E6091DB0E709152
:104F5000DC0E89E0849FF001859FF00D1124ED5F48
:104F6000F24F208131812032324098F04091D90EA9
:104F70005091DA0E6091DB0E7091DC0E849FF0018F
:104F8000859FF00D1124ED5FF24F8CE192E091834B
:104F900080838091260D44E0849FC001112490936A
:104FA0001F0D80931E0D8091270D9091280D9595D2
:104FB0008795959587950E944D4E40E060E088E387
:104FC00094E00E94483D84E00E94CA4B84E00C9427
:104FD0009B184091D90E5091DA0E6091DB0E7091C2
:104FE000DC0E89E0849FF001859FF00D1124ED5FB8
:104FF000F24F208131812032324098F04091D90E19
:105000005091DA0E6091DB0E7091DC0E849FF001FE
:10501000859FF00D1124ED5FF24F8CE192E09183BA
:10502000808380912F0D54E0859FC00111249093BF
:10503000280D8093270D8091300D9091310D95951D
:105040008795959587950E944D4E40E060E089E4F4
:1050500094E00E94483D85E00E94CA4B85E00C9494
:105060009B184091D90E5091DA0E6091DB0E709131
:10507000DC0E89E0849FF001859FF00D1124ED5F27
:10508000F24F208131812032324098F04091D90E88
:105090005091DA0E6091DB0E7091DC0E849FF0016E
:1050A000859FF00D1124ED5FF24F8CE192E091832A
:1050B00080838091380DA4E08A9FC00111249093D1
:1050C000310D8093300D8091390D90913A0D959569
:1050D0008795959587950E944D4E40E060E08CE560
:1050E00094E00E94483D86E00E94CA4B86E00C9402
:1050F0009B188091410DF4E08F9FC0011124909383
:105100003A0D8093390D40E060E085EE96E00E9414
:10511000483D41E060E080EF96E00E94483D80918C
:10512000420D9091430D889730F084E290E0909387
:10513000430D8093420D8091420D9091430D9695C1
:10514000879596958795892B29F440E06BE08DE64D
:1051500094E086C08091420D9091430D969587957D
:1051600096958795019729F440E06BE083E794E0FA
:1051700077C08091420D9091430D969587959695B5
:105180008795029729F440E06BE089E794E068C0D6
:105190008091420D9091430D9695879596958795B0
:1051A000039729F440E06BE08FE794E059C08091C9
:1051B000420D9091430D9695879596958795049706
:1051C00029F440E06BE085E894E04AC08091420D0C
:1051D0009091430D9695879596958795059729F417
:1051E00040E06BE08BE894E03BC08091420D9091F1
:1051F000430D9695879596958795069729F440E0F7
:105200006BE081E994E02CC08091420D9091430DB8
:105210009695879596958795079729F440E06AE0DB
:1052200087E994E01DC08091420D9091430D9695C1
:10523000879596958795089729F440E06AE08EE96E
:1052400094E00EC08091420D9091430D9695879504
:1052500096958795099731F440E06AE085EA94E0F5
:105260000E94483D87E00E949D4B8091420D9091A5
:10527000430D96958795969587959093450D8093C8
:10528000440D87E02DC040E060E08EE397E00E948F
:10529000483D41E060E080EF96E00E94483D80910B
:1052A0009C0D90919D0D9695879596958795892B48
:1052B00009F083C240E06AE08DEE94E00E94483D30
:1052C00081E10E949D4B80919C0D90919D0D969542
:1052D00087959695879590939F0D80939E0D81E17C
:1052E0008093070D109268090C949D1880914B0DC6
:1052F00090914C0D849720F010924C0D10924B0D14
:1053000040E060E08BEA94E00E94483D41E060E0CC
:1053100086EB94E00E94483D80914B0D90914C0D9E
:105320009695879596958795892B11F00C94AD20CD
:1053300040E069E081EC94E05BC080914B0D90917E
:105340004C0D9695879596958795029729F440E0A0
:1053500069E089EC94E064C080914B0D90914C0D14
:105360009695879596958795039731F440E069E087
:1053700082ED94E00C94BD2080914B0D90914C0DEA
:105380009695879596958795049729F440E069E06E
:1053900082ED94E045C080914B0D90914C0D969517
:1053A000879596958795059729F440E069E089EC03
:1053B00094E01EC080914B0D90914C0D9695879571
:1053C00096958795069731F440E069E081EC94E08A
:1053D0000C94BD2080914B0D90914C0D9695879526
:1053E00096958795079761F440E069E082ED94E037
:1053F0000E94483D41E069E081EC94E00C94C320B8
:1054000080914B0D90914C0D96958795969587952B
:10541000089711F00C94C52040E069E081EC94E01D
:105420000E94483D41E069E082ED94E00C94C32085
:105430008091540D9091550D8115944020F010925B
:10544000550D1092540D0E94D44A40E060E08BED5F
:1054500094E00E94483D8091540D9091550D969591
:105460008795969587958093E40989E00E949D4BE6
:105470008091540D9091550D9695879596958795A9
:105480009093570D8093560D89E00C94D520809110
:105490005D0D90915E0D8115944020F010925E0D8F
:1054A00010925D0D0E94D44A41E060E08EED94E0E0
:1054B0000E94483D80915D0D90915E0D9695879577
:1054C000969587958093F2098AE00E949D4B809182
:1054D0005D0D90915E0D9695879596958795909325
:1054E000600D80935F0D8AE00C94D5208091660D4D
:1054F0009091670D8115944020F01092670D1092E5
:10550000660D0E94D44A40E065E081EE94E00E947E
:10551000483D8091660D9091670D9695879596957B
:1055200087958093000A8BE00E949D4B8091660DC9
:105530009091670D96958795969587959093690DAF
:105540008093680D8BE00C94D52080916F0D909125
:10555000700D8115944020F01092700D10926F0D17
:105560000E94D44A41E065E084EE94E00E94483D08
:1055700080916F0D9091700D969587959695879572
:1055800080930E0A8CE00E949D4B80916F0D90914C
:10559000700D96958795969587959093720D80934B
:1055A000710D8CE00C94D5208091780D9091790D3F
:1055B0008115944020F01092790D1092780D0E9480
:1055C000D44A40E06AE087EE94E00E94483D809132
:1055D000780D9091790D96958795969587958093FE
:1055E0001C0A8DE00E949D4B8091780D9091790D61
:1055F000969587959695879590937B0D80937A0DD8
:105600008DE00C94D5202E3011F00E942450809112
:10561000810D9091820D8115944020F01092820DA1
:105620001092810D0E94D44A41E06AE08AEE94E033
:105630000E94483D8091810D9091820D96958795AD
:105640009695879580932A0A8EE00E949D4B8091C3
:10565000810D9091820D969587959695879590935B
:10566000840D8093830D8EE00C94D52040E060E0A3
:1056700082E097E00E94483D41E060E082E197E0EF
:105680000E94483D6091930D7091940D76956795B9
:105690007695679580E090E00E94DA5B01E02DE06E
:1056A00043E00E94FC4E80918A0D90918B0D809773
:1056B00020F010928B0D10928A0D60918A0D7091DE
:1056C0008B0D769567957695679580E090E00E94C2
:1056D000DA5B00E02FE041E00E94FC4E80E090E0C9
:1056E00020918A0D30918B0DFC01E052F64F3695DA
:1056F00027953695279525830E968C38910581F749
:105700008FE00E949D4B80918A0D90918B0D969514
:1057100087959695879590938D0D80938C0D8FE04E
:105720000C94D52040E060E080E297E00E94483D84
:1057300060918A0D70918B0D76956795769567953A
:1057400080E090E00E94DA5B00E02FE041E00E9400
:10575000FC4E41E060E080E397E00E94483D80918C
:10576000930D9091940D8115944020F01092940D1A
:105770001092930D6091930D7091940D76956795AD
:105780007695679580E090E00E94DA5B01E02DE07D
:1057900043E00E94FC4E80E10E949D4B8091930D5E
:1057A0009091940D96958795969587959093960DE3
:1057B0008093950D80E10C94D52080919C0D909163
:1057C0009D0D9695879596958795019729F440E0CC
:1057D0006AE083EF94E072CD80919C0D90919D0DD5
:1057E0009695879596958795029729F440E06AE00B
:1057F00089EF94E063CD80919C0D90919D0D9695DD
:10580000879596958795039729F440E06AE08FEF96
:1058100094E054CD80919C0D90919D0D9695879527
:1058200096958795049729F440E06AE086E095E034
:1058300045CD80919C0D90919D0D9695879596955F
:105840008795059729F440E06AE08CE095E036CD35
:1058500080919C0D90919D0D969587959695879535
:10586000069729F440E06AE083E195E027CD809136
:105870009C0D90919D0D9695879596958795079788
:1058800029F440E06AE08AE195E018CD80919C0D12
:1058900090919D0D9695879596958795089729F4F3
:1058A00040E06AE081E295E009CD80919C0D909105
:1058B0009D0D9695879596958795099729F440E0D3
:1058C0006AE088E295E0FACC80919C0D90919D0D64
:1058D00096958795969587950A9729F440E06AE012
:1058E0008FE295E0EBCC80919C0D90919D0D96956B
:1058F0008795969587950B9729F440E06AE086E3B3
:1059000095E0DCCC80919C0D90919D0D96958795AE
:10591000969587950C9729F440E06AE08DE395E031
:10592000CDCC80919C0D90919D0D969587959695E7
:1059300087950D9729F440E06AE084E495E0BECCB9
:1059400080919C0D90919D0D969587959695879544
:105950000E9729F440E06AE08BE495E0AFCC8091AB
:105960009C0D90919D0DCC9708F4AACC88E390E013
:1059700090939D0D80939C0DA3CC2A3111F00E9431
:10598000245040E060E08EEC95E00E94483D60913C
:10599000ED0D7091EE0D769567957695679580E0A3
:1059A00090E00E94DA5B00E02AE043E00E94FC4EB7
:1059B0006091F60D7091F70D7695679576956795E0
:1059C00080E090E00E94DA5B01E02BE043E00E947F
:1059D000FC4E41E060E088ED95E00E94483D8AE1A0
:1059E0000E949D4B8091ED0D9091EE0D96958795BF
:1059F000969587959093F00D8093EF0D8AE10C9426
:105A0000D5202B3111F00E9424508091F60D9091F9
:105A1000F70D8038910520F01092F70D1092F60DD9
:105A200040E060E082EE95E00E94483D6091F60D16
:105A30007091F70D769567957695679580E090E083
:105A40000E94DA5B01E02BE043E00E94FC4E609193
:105A5000ED0D7091EE0D769567957695679580E0E2
:105A600090E00E94DA5B00E02AE043E00E94FC4EF6
:105A700041E060E08CEE95E00E94483D8BE10E94A1
:105A80009D4B8091F60D9091F70D96958795969583
:105A900087959093F90D8093F80D8BE10C94D520A8
:105AA0002C3111F00E9424508091FF0D9091000E36
:105AB0008115924020F01092000E1092FF0D40E0F0
:105AC00060E086EF95E00E94483D6091FF0D709187
:105AD000000E769567957695679580E090E00E9438
