:100000000C94EC170C9409350C94DE340C94B33436
:100010000C9488340C945D340C9432340C94073472
:100020000C94DC330C941D180C941D180C941D18A2
:100030000C941D180C941D180C941D180C941D186C
:100040000C941D180C941D180C941D180C941D185C
:100050000C941D180C94DA3F0C941D180C949233D8
:100060000C941D180C947F320C9456320C941D186D
:100070000C941D180C941D180C941D180C941D182C
:100080000C941D180C941D180C941D180C941D181C
:100090000C941D180C941D180C941D180C942E41D2
:1000A0000C941D180C941D180C941D180C941D18FC
:1000B0000C941D180C941D180C941D180C941D18EC
:1000C0000C941D180C941D180C941D180C942D32B2
:1000D0000C9404320C941D180C94DB310C94B23146
:1000E0000C941D185D18A918DC180F194219751900
:1000F000A819DB19F3190B1A231A3B1A531A6B1A96
:10010000831A9B1AB31ACB1AE31A6A1BF11B771CCA
:10011000F01C691DE21D5B1E6C1E841E9C1EB41E1D
:10012000CC1EE41EFC1E141F2C1F441F5C1F741FDA
:100130008C1FA41FBC1FD41FEC1F04201C203420C4
:100140004C2064207C209420A1585657A5585A571B
:100150005D576157645767576B576F57735776579B
:100160003431373126312A3130316E313B313F3134
:10017000453149314D31533157315B316E31613148
:100180006531693182354C35543560356D358E3584
:100190009B357145874571457C4571457C45714569
:1001A00071457C4571457C45714507634236B79B77
:1001B000D8A71A39685618AEBAAB558C1D3CB7CCC7
:1001C0005763BD6DEDFD753EF6177231BF0000003F
:1001D000803F08000000BE922449123EABAAAA2A22
:1001E000BECDCCCC4C3E00000080BEABAAAAAA3E3D
:1001F00000000000BF000000803F00000000000879
:100200004178D3BB4387D1133D190E3CC3BD428215
:10021000AD2B3E68EC8276BED98FE1A93E4C80EFD3
:10022000FFBE01C4FF7F3F000000000000407A10C5
:10023000F35A00A0724E18090010A5D4E80000E897
:100240007648170000E40B54020000CA9A3B0000F5
:1002500000E1F505000080969800000040420F0084
:100260000000A08601000000102700000000E80345
:10027000000000006400000000000A000000000010
:100280000100000000002C76D888DC674F0823DFCF
:10029000C1DFAE59E1B1B796E5E3E453C63AE651A2
:1002A000997696E8E6C28426EB898C9B62ED407CC9
:1002B0006FFCEFBC9C9F40F2BAA56FA5F490055A65
:1002C0002AF75C936B6CF9676DC11BFCE0E40D478A
:1002D000FEF520E6B500D0ED902E030094357705AD
:1002E0000080841E080000204E0A000000C80C3365
:1002F0003333330F986E12831141EF8D2114893BF4
:10030000E65516CFFEE6DB18D1844B381BF77C1D73
:10031000901DA4BBE424203284725E228100C9F1C6
:1003200024ECA1E53D276364696E6F70737578589E
:100330005B0000002100240027002A002D0030006F
:10034000330001010000040107010A01010210202D
:1003500020080810204010204080020102010804FB
:10036000020101020408102040808040201008048F
:1003700002018004020180402010080402010804E8
:10038000020101020408102040800102040810202C
:100390004080050505050705080808080202020255
:1003A0000A0A080804040404010101010101010111
:1003B0000303030303030303040707070C0C0C0CDC
:1003C0000C0C0C0C020202020606060606060606C5
:1003D0000B0B0B0B0B0B0B0B000022002500280056
:1003E0002B002E003100340002010000050108013D
:1003F0000B01000020002300260029002C002F0004
:1004000032000001000003010601090100000A0B8F
:1004100002090C0D0E080703040100000000000093
:1004200000000000000000000000000000000000CC
:100430000000000000000000121110000000000089
:1004400000000000000000000000000000000000AC
:100450000000363532373920382031303030306DB9
:100460007320574649203120312032203937205718
:10047000617465725F496E5F4675656C5F496E6455
:10048000696361746F7220345F7374617465732F74
:10049000325F626974203020626974003635323709
:1004A00036203820313030306D73202020444420F5
:1004B0003220312038203936204675656C5F4C6516
:1004C00076656C5F3120302E345F252F6269742091
:1004D0003020250036353237322038203130303068
:1004E0006D73205452463120352031203136203171
:1004F0003737205472616E736D697373696F6E5F05
:100500004F696C5F54656D706572617475726520BA
:10051000315F6465675F432F626974202D32373322
:100520002043003635323732203820313030306DBC
:100530007320545246312034203120382031323754
:10054000205472616E736D697373696F6E5F4F696A
:100550006C5F50726573737572652031365F6B50D6
:10056000612F6269742030206B506100363532375C
:1005700032203820313030306D73205452463120D3
:10058000332031203820313236205472616E736D41
:10059000697373696F6E5F46696C7465725F4469F5
:1005A00066666572656E7469616C5F5072657373BF
:1005B00075726520325F6B50612F62697420302044
:1005C0006B506100363532373120382031303030D1
:1005D0006D73205645503120352031203136203181
:1005E000363820456C656374726963616C5F506F67
:1005F00074656E7469616C20302E30355F562F62E1
:100600006974203020566F6C747300363532373180
:10061000203820313030306D73205645503120372E
:10062000203120313620313538204B657973776998
:100630007463685F426174746572795F506F74654A
:100640006E7469616C20302E30355F562F6269748C
:10065000203020566F6C74730036353237302038B6
:10066000203530306D732049433120362031203120
:10067000362031373320456E67696E655F4578688F
:10068000617573745F4761735F54656D7065726106
:100690007475726520302E30333132355F64656792
:1006A0005F432F626974202D323733204300363583
:1006B0003237302038203530306D732049433120B7
:1006C00034203120382031303620456E67696E6520
:1006D0005F4169725F496E6C65745F5072657373D8
:1006E00075726520325F6B50612F62697420302013
:1006F0006B50610036353237302038203530306D60
:1007000073204943312033203120382031303520C7
:10071000456E67696E655F496E74616B655F4D61BB
:100720006E69666F6C645F315F54656D7065726190
:100730007475726520315F6465675F432F62697409
:10074000202D3430204300363532373020382035E4
:1007500030306D7320494331203220312038203130
:10076000303220456E67696E655F496E74616B65F6
:100770005F4D616E69666F6C645F23315F507265B7
:10078000737375726520325F6B50612F62697420DC
:1007900030206B5061003635323639203820313008
:1007A00030306D7320414D422036203120382031C9
:1007B000373220456E67696E655F4169725F496EC9
:1007C0006C65745F54656D706572617475726520D7
:1007D000315F6465675F432F626974202D34302078
:1007E00043003635323639203820313030306D73A1
:1007F00020414D42203120312038203130382042F4
:1008000061726F6D65747269635F50726573737541
:10081000726520302E355F6B50612F626974203015
:10082000206B50610036353236362038203130307A
:100830006D73204C4645203320312031362031382D
:100840003420456E67696E655F496E7374616E74BE
:10085000616E656F75735F4675656C5F45636F6E3E
:100860006F6D7920312F3531325F6B6D2F4C5F709A
:1008700065725F6269742030206B6D2F4C003635D5
:100880003236362038203130306D73204C464520CA
:100890003120312031362031383320456E67696E82
:1008A000655F4675656C5F5261746520302E30352A
:1008B0005F4C2F685F7065725F6269742030206CD6
:1008C0002F680036353236362038203130306D739F
:1008D000204C4645203720312038203138332054F1
:1008E00068726F74746C655F506F736974696F6E52
:1008F00020302E345F6465677265652F62697420ED
:1009000030206465677265650036353236352038CB
:10091000203130306D732043435653203420312032
:100920003220353935204372756973655F436F6EC8
:1009300074726F6C5F41637469766520345F7374A1
:10094000617465732F325F6269742030206269744C
:100950000036353236352038203130306D73204343
:100960004356532032203120313620383420576806
:1009700065656C2D42617365645F56656869636C7B
:10098000655F537065656420312F3235365F6B6D5E
:100990002F685F7065725F6269742030206B7068C9
:1009A0000036353236332038203530306D732045EF
:1009B000464C2F5031203820312038203131312021
:1009C000456E67696E655F436F6F6C616E745F4CF7
:1009D0006576656C20302E345F252F626974203077
:1009E00020250036353236332038203530306D73CF
:1009F0002045464C2F5031203720312038203130CF
:100A00003920456E67696E655F436F6F6C616E7408
:100A10005F507265737375726520325F6B50612F22
:100A20006269742030206B506100363532363320D5
:100A300038203530306D732045464C2F50312031F1
:100A4000203120313620313031204372616E6B63AA
:100A50006173655F507265617375726520325F6B9B
:100A600050612F6269742030206B5061003635323E
:100A700036332038203530306D732045464C2F50AA
:100A8000312034203120382031303020456E6769E4
:100A90006E655F4F696C5F50726573737572652028
:100AA000345F6B50612F6269742030206B5061009D
:100AB00036353236332038203530306D7320454698
:100AC0004C2F503120332031203820393820456ECA
:100AD00067696E655F4F696C5F4C6576656C203049
:100AE0002E345F252F626974203020250036353280
:100AF00036332038203530306D732045464C2F502A
:100B000031203120312038203934204675656C5F22
:100B100044656C69766572795F5072656173757250
:100B20006520345F6B50612F6269742030206B50F8
:100B300061003635323632203820313030306D7336
:100B40002045543120372031203820353220456E61
:100B500067696E655F496E746572636F6F6C65720D
:100B60005F54656D706572617475726520315F6484
:100B700065675F432F626974202D3430204300364F
:100B800035323632203820313030306D73204554C4
:100B900031203320312031362031373520456E6702
:100BA000696E655F4F696C5F54656D7065726174E5
:100BB0007572655F3120302E30333132355F6465B8
:100BC000675F432F626974202D323733204300362C
:100BD00035323632203820313030306D7320455474
:100BE000312032203120382031373420456E67697A
:100BF0006E655F4675656C5F54656D706572617496
:100C00007572655F3120315F6465675F432F62698C
:100C100074202D34302043003635323632203820CF
:100C2000313030306D73204554312031203120383F
:100C30002031313020456E67696E655F436F6F6CA0
:100C4000616E745F54656D70657261747572652054
:100C5000315F6465675F432F626974202D343020F3
:100C600043003635323534203820313030306D7322
:100C7000205444203620312038203936342059651C
:100C8000617220315F796561722F62697420313938
:100C90003835205965617273003635323534203865
:100CA00020313030306D73205444203420312038CE
:100CB00020393633204D6F6E746820315F6D6F6E52
:100CC00074682F6269742030204D6F6E74687300F1
:100CD0003635323534203820313030306D73205481
:100CE00044203520312038203936322044617920A3
:100CF000302E32355F646179732F62697420302041
:100D00004461797300363532353420382031303043
:100D1000306D73205444203320312038203936314F
:100D200020486F75727320315F68722F626974207A
:100D300030207300363532353420382031303030B1
:100D40006D73205444203220312038203936302031
:100D50004D696E7574657320315F6D696E2F6269C0
:100D6000742030207300363532353420382031304D
:100D700030306D73205444203120312038203935F3
:100D800039205365636F6E647320302E32355F7384
:100D90002F626974203020730036353235322038A6
:100DA00020313030306D732053485554444E203339
:100DB000203120322039383520412F435F48696780
:100DC000685F50726573737572655F46616E5F53DD
:100DD000776974636820345F7374617465732F324C
:100DE0005F626974203020626974003635323532B2
:100DF000203820313030306D732053485554444EE4
:100E0000203320332032203837352052656672690E
:100E1000676572616E745F4C6F775F507265737354
:100E20007572655F53776974636820345F737461AA
:100E30007465732F325F62697420302062697400B8
:100E40003635323532203820313030306D73205312
:100E5000485554444E20332035203220363035203A
:100E60005265667269676572616E745F486967682A
:100E70005F50726573737572655F537769746368E9
:100E800020345F7374617465732F325F62697420FC
:100E900030206269740036353235322038203130E6
:100EA00030306D732053485554444E203120332048
:100EB000322035393420456E67696E655F49646C50
:100EC000655F53687574646F776E5F4472697665A9
:100ED000725F416C6572745F4D6F646520345F733F
:100EE00074617465732F325F6269742030206269A7
:100EF00074003635323532203820313030306D7361
:100F00002053485554444E20312031203220353969
:100F10003320456E67696E655F49646C655F536831
:100F20007574646F776E5F6861735F53687574641E
:100F30006F776E5F456E67696E6520345F737461AD
:100F40007465732F325F62697420302062697400A7
:100F50003635323532203820313030306D73205301
:100F6000485554444E203120352032203539322026
:100F7000456E67696E655F49646C655F536875743B
:100F8000646F776E5F54696D65725F4F76657272DC
:100F900069646520345F7374617465732F325F62B6
:100FA0006974203020626974003635323532203859
:100FB00020313030306D732053485554444E203228
:100FC000203720322035393120456E67696E655FE4
:100FD00049646C655F53687574646F776E5F5469BC
:100FE0006D65725F46756E6374696F6E20345F73F2
:100FF00074617465732F325F626974203020626996
:1010000074003635323532203820313030306D734F
:101010002053485554444E20312037203220353952
:101020003020456E67696E655F49646C655F536823
:101030007574646F776E5F54696D65725F53746128
:10104000746520345F7374617465732F325F6269F5
:1010500074203020626974003635323531203339DE
:1010600020353030306D7320454331203920312018
:10107000382035343120456E67696E655F50657282
:1010800063656E745F546F727175655F41745F5014
:101090006F696E745F335F28456E67696E655F4385
:1010A0006F6E66696775726174696F6E2920315F52
:1010B000252F626974202D313235202500363532D6
:1010C0003435203820313030306D732054432020A7
:1010D0002031203120382031303420456E67696E50
:1010E000655F547572626F636861726765725F54A1
:1010F0007562655F4F696C5F507265737375726579
:101100005F3120345F6B50612F6269742030206B37
:101110005061003635313938203820313030306D6B
:10112000732041495231203120312038203436207B
:10113000506E65756D617469635F537570706C791D
:101140005F507265737375726520385F6B50612FE5
:101150006269742030206B506100363531373020A1
:1011600038203130306D7320204549202032203125
:10117000203136203132303920456E67696E655F27
:10118000457868617573745F4761735F507265730A
:101190007375726520312F3132385F6B50612F6269
:1011A0006974202D323530206B5061003635313274
:1011B00039203820313030306D732045543320339E
:1011C0002031203136203136333720456E67696E45
:1011D000655F436F6F6C616E745F54656D706572AF
:1011E00061747572655F28486967685F5265736FDF
:1011F0006C7574696F6E2920302E30333132355F53
:101200006465675F432F626974202D323733204352
:10121000003635313239203820313030306D73208E
:1012200045543320312031203136203136333620B9
:10123000456E67696E655F496E74616B655F4D6190
:101240006E69666F6C645F315F4169725F54656D92
:1012500070657261747572655F28486967685F526E
:1012600065736F6C7574696F6E2920302E30333161
:1012700032355F6465675F432F626974202D3237B2
:101280003320430036353132382038203130303089
:101290006D732056462032203120322031373133D1
:1012A000204879647261756C69635F4F696C5F4651
:1012B000696C7465725F5265737472696374696F87
:1012C0006E5F53776974636820345F73746174650B
:1012D000732F325F62697420302062697400363582
:1012E000313238203820313030306D73205646206E
:1012F000203120312038203136333820487964724B
:1013000061756C69635F54656D7065726174757247
:101310006520315F6465675F432F626974202D34F7
:1013200030204300363531313020382031303030F4
:101330006D7320544931203220312038203330332E
:101340003120416674657274726561746D656E7486
:101350007343525F436174616C7973745F54616E5F
:101360006B5F54656D706572617475726520315F75
:101370006465675F432F626974202D343020430019
:101380003635313130203820313030306D732054D3
:101390004931203120312038203137363120416623
:1013A00074657274726561746D656E747343525FB7
:1013B000436174616C7973745F54616E6B5F4C65EB
:1013C00076656C20302E345F252F626974203020C2
:1013D00025003635313034203820313030306D73CF
:1013E0002042543120312031203820313830302013
:1013F000426174746572795F315F54656D706572B6
:10140000617475726520315F6465675F432F62693F
:1014100074202D34302043003635303331203820CD
:10142000203530306D73204554202031203120315B
:1014300036203234333320456E67696E655F4578F8
:1014400068617573745F4761735F54656D70657231
:1014500061747572655F2D5F52696768745F4D6175
:101460006E69666F6C6420302E30333132355F64C4
:1014700065675F432F626974202D32373320430044
:101480003634393938203820203130306D732048D7
:1014900042532033203120322032353834204879ED
:1014A000647261756C69635F4272616B655F5072F3
:1014B0006573737572655F5761726E696E675F53AE
:1014C000746174655F436972637569745F31203458
:1014D0005F7374617465732F325F626974203020AA
:1014E0006269740036343939382038202031303080
:1014F0006D73204842532033203520322032353856
:1015000032204879647261756C69635F4272616B05
:10151000655F50726573737572655F537570706C3B
:10152000795F53746174655F436972637569745F51
:101530003120345F7374617465732F325F62697434
:101540002030206269740036343939382038202040
:101550003130306D73204842532031203120382003
:1015600032353830204879647261756C69635F4246
:1015700072616B655F50726573737572655F436905
:1015800072637569745F31203130305F6B50612F49
:101590006269742030206B50610036343939332051
:1015A0003820313030306D732043414349203120A1
:1015B0003120382032363039204361625F412F4379
:1015C0005F5265667269676572616E745F436F6DC5
:1015D00070726573736F725F4F75746C65745F5072
:1015E000726573737572652031365F6B50612F625F
:1015F00069742030206B5061003634393235203820
:1016000020313030306D732053535620203120313B
:1016100020313620333530392053656E736F725F59
:10162000737570706C795F766F6C746167655F312C
:1016300020302E30355F562F626974203020566F6F
:101640006C74730036343932332038203130303006
:101650006D732043524931203620312034203335F8
:10166000323120416674657274726561746D656EA5
:10167000747343525F436174616C7973745F526534
:101680006167656E745F547970652031365F73747D
:10169000617465732F345F626974203020626974ED
:1016A000003634393233203820313030306D7320F9
:1016B000435249312033203120382033353138200E
:1016C000416674657274726561746D656E7473439E
:1016D000525F436174616C7973745F5265616765D1
:1016E0006E745F436F6E6475637469766974792094
:1016F000355F6D6963726F5369656D656E732F6DCC
:101700006D2030206D532F6D6D003634393233200B
:101710003820313030306D7320435249312032202F
:101720003120382033353136204166746572747249
:101730006561746D656E747343525F436174616C6F
:101740007973745F52656167656E745F436F6E6332
:10175000656E74726174696F6E20302E32355F254C
:101760002F62697420302025003631343639203814
:10177000202031306D7320534153202031203120FF
:1017800031362033363833205374656572696E679D
:101790005F576865656C5F416E676C6520312F31FE
:1017A0003032345F7261645F7065725F62697420A9
:1017B0002D33312C333734206465670036313436AD
:1017C000362038202035306D732054464143203177
:1017D0002031203136203334363420456E67696E2F
:1017E000655F5468726F74746C655F416374756192
:1017F000746F725F315F436F6E74726F6C5F436FB3
:101800006D6D616E6420302E303032355F252F6271
:1018100069742030202500363134363320382020BA
:1018200032306D73204B4C31202031203120382054
:101830003133353220456E67696E655F43796C6977
:101840006E6465725F315F4B6E6F636B5F4C657684
:10185000656C20315F252F626974203020250036A9
:10186000313436322038202032306D7320434353D8
:1018700020203120312032203333383720456E6725
:10188000696E655F43796C696E6465725F315F4351
:101890006F6D62757374696F6E5F53746174757385
:1018A00020345F7374617465732F325F62697420D2
:1018B00030206269740036313435302038202035CC
:1018C000306D73204547463120312031203136209C
:1018D0003236353920456E67696E655F45786861D7
:1018E0007573745F4761735F526563697263756C8A
:1018F0006174696F6E5F28454752295F4D6173734C
:101900005F466C6F775F5261746520302E30355FB3
:101910006B672F685F7065725F6269742030206B3F
:10192000672F680036313435302038202035306D4F
:101930007320454746202031203120313620313375
:101940003220456E67696E655F496E6C65745F41F4
:1019500069725F4D6173735F466C6F775F5261743C
:101960006520302E30355F6B672F685F7065725F62
:101970006269742030206B672F6800363134343947
:101980002038202031306D732056444332203320DC
:101990003720322031383132205374656572696ED8
:1019A000675F576865656C5F416E676C655F53651F
:1019B0006E736F725F5479706520345F73746174F5
:1019C00065732F325F62697420302062697400365B
:1019D000313434392038202031306D73205644435F
:1019E0003220332031203620313831312053746594
:1019F0006572696E675F576865656C5F5475726E76
:101A00005F436F756E74657220315F7475726E2FEF
:101A1000626974202D333220636F756E7400363125
:101A20003434392038202031306D7320564443320D
:101A30002038203120382031383130204C6F6E670B
:101A400069747564696E616C5F416363656C65722E
:101A50006174696F6E20302E315F6D2F733F5F7040
:101A600065725F626974202D31322C35206D2F73C1
:101A7000320036313434392038202031306D732033
:101A80005644432020362031203136203138303939
:101A9000204C61746572616C5F416363656C657253
:101AA0006174696F6E20312F323034385F6D2F735F
:101AB0003F5F7065725F626974202D31352C363856
:101AC00037206D2F733200363134343920382020DE
:101AD00031306D732056444332203420312031366A
:101AE0002031383038205961775F52617465203178
:101AF0002F383139325F7261642F735F7065725FA6
:101B0000626974202D332C3932207261642F730086
:101B100036313434392038202031306D732056442A
:101B200043322031203120313620313830372053B4
:101B300074656572696E675F576865656C5F416E55
:101B4000676C6520312F313032345F7261645F70B1
:101B500065725F626974202D33312C333734206411
:101B600065670036313434382038202035306D73C5
:101B7000204850472020312031203136203137365F
:101B800032204879647261756C69635F5072657365
:101B90007375726520325F6B50612F6269742030FB
:101BA000206B5061003631343435203820313030EC
:101BB0006D73204554433220322031203136203598
:101BC0003236205472616E736D697373696F6E5F24
:101BD00041637475616C5F476561725F52617469DE
:101BE0006F20302E3030312F6269742030205261E6
:101BF00074696F0036313434352038203130306D1F
:101C0000732045544332203120312038203532347E
:101C1000205472616E736D697373696F6E5F536583
:101C20006C65637465645F4765617220315F6765E9
:101C300061725F76616C75652F626974202D313237
:101C40003520676561725F76616C75650036313489
:101C500034352038203130306D73204554433220E4
:101C6000342031203820353233205472616E736D48
:101C7000697373696F6E5F43757272656E745F47E7
:101C800065617220315F676561725F76616C756551
:101C90002F626974202D31323520676561725F765D
:101CA000616C756500363134343520382031303080
:101CB0006D73204554433220352031203136203198
:101CC0003632205472616E736D697373696F6E5F23
:101CD0005265717565737465645F52616E676520E6
:101CE000415343494920302041534349490036314B
:101CF0003434342038202032306D73204545433150
:101D0000203120352034203431353420416374753E
:101D1000616C5F456E67696E655F2D5F50657263CC
:101D2000656E745F546F727175655F486967685F4F
:101D30005265736F6C7574696F6E20302E31323559
:101D4000252F626974203020250036313434342048
:101D500038202032306D7320454543312038203102
:101D60002038203234333220456E67696E655F4417
:101D7000656D616E645F3F5F50657263656E745F31
:101D8000546F7271756520315F252F626974202D43
:101D90003132352025003631343434203820203299
:101DA000306D7320454543312037203120342031B8
:101DB00036373520456E67696E655F53746172749E
:101DC00065725F4D6F64652031365F737461746551
:101DD000732F345F62697420302062697400363179
:101DE0003434342038202032306D7320454543315F
:101DF000203620312038203134383320536F75722B
:101E000063655F416464726573735F6F665F436FA0
:101E10006E74726F6C6C696E675F4465766963653A
:101E20005F666F725F456E67696E655F436F6E7464
:101E3000726F6C20313030306D736F757263655F17
:101E4000616464726573732F62697420302053413A
:101E50000036313434342038202032306D73204540
:101E60004543312031203120342038393920456E26
:101E700067696E655F546F727175655F4D6F6465FC
:101E80002031365F7374617465732F345F626974D7
:101E900020302062697400363134343420382020F8
:101EA00032306D73204545433120332031203820B6
:101EB0003531332041637475616C5F456E67696EBF
:101EC000655F2D5F50657263656E745F546F7271EC
:101ED000756520315F252F626974202D31323520E0
:101EE000250036313434342038202032306D7320D0
:101EF00045454331203220312038203531322044CD
:101F0000726976657227735F44656D616E645F45C3
:101F10006E67696E655F2D5F50657263656E745F95
:101F2000546F7271756520315F252F626974202DA1
:101F300031323520250036313434342038202032F7
:101F4000306D732045454331203420312031362017
:101F500031393020456E67696E655F537065656421
:101F600020302E3132355F72706D2F6269742030EF
:101F70002072706D003631343433203820203530F3
:101F80006D732045454332203320312038203932CB
:101F900020456E67696E655F50657263656E745F3C
:101FA0004C6F61645F41745F43757272656E745FFC
:101FB000537065656420315F252F6269742030207D
:101FC000250036313434332038202035306D7320ED
:101FD00045454332203220312038203931204163B9
:101FE00063656C657261746F725F506564616C5F8C
:101FF000506F736974696F6E5F3120302E345F25C6
:102000002F62697420302025003631343432203874
:10201000202031306D73204554433120322031204F
:10202000313620313931205472616E736D697373AA
:10203000696F6E5F4F75747075745F536861667415
:102040005F537065656420302E3132355F72706D7C
:102050002F62697420302072706D00363134343153
:102060002038203130306D732045424331203820F4
:1020700033203220323931312048616C745F627212
:10208000616B655F73776974636820345F73746133
:102090007465732F325F6269742030206269740046
:1020A00036313434312038203130306D73204542A0
:1020B00043312038203520322031383336205472D5
:1020C00061696C65725F4142535F537461747573EB
:1020D00020345F7374617465732F325F626974209A
:1020E0003020626974003631343431203820313088
:1020F000306D732045424331203620372032203165
:10210000373933204154432F4153525F496E666F34
:10211000726D6174696F6E5F5369676E616C2034B4
:102120005F7374617465732F325F6269742030204D
:102130006269740036313434312038203130306DEA
:10214000732045424331203820372032203137393F
:10215000322054726163746F722D4D6F756E7465A9
:10216000645F547261696C65725F4142535F57618D
:10217000726E696E675F5369676E616C20345F735E
:1021800074617465732F325F6269742030206269F4
:10219000740036313434312038203130306D7320C2
:1021A0004542433120372031203820313438312026
:1021B000536F757263655F416464726573735F6FBB
:1021C000665F436F6E74726F6C6C696E675F4465B7
:1021D000766963655F666F725F4272616B655F43CC
:1021E0006F6E74726F6C20313030306D736F75723A
:1021F00063655F616464726573732F626974203014
:102200002053410036313434312038203130306DA4
:10221000732045424331203620332032203134337D
:1022200039204542535F5265645F5761726E696E33
:10223000675F5369676E616C20345F7374617465A6
:10224000732F325F62697420302062697400363106
:102250003434312038203130306D732045424331E1
:102260002036203520322031343338204142532F5C
:102270004542535F416D6265725F5761726E696E70
:10228000675F5369676E616C5F28506F7765726531
:10229000645F56656869636C652920345F73746197
:1022A0007465732F325F6269742030206269740034
:1022B00036313434312038203130306D732045428E
:1022C0004331203620312032203132343320414214
:1022D000535F46756C6C795F4F7065726174696F9E
:1022E0006E616C20345F7374617465732F325F624A
:1022F00069742030206269740036313434312038FA
:10230000203130306D73204542433120312031205F
:10231000322031323338205472616374696F6E5FDA
:10232000436F6E74726F6C5F4F766572726964652D
:102330005F53776974636820345F73746174657385
:102340002F325F6269742030206269740036313444
:1023500034312038203130306D73204542433120F4
:1023600031203720322031313231204542535F4213
:1023700072616B655F53776974636820345F73744F
:10238000617465732F325F626974203020626974F2
:102390000036313434312038203130306D732045EF
:1023A0004243312035203120382039373320456EE3
:1023B00067696E655F52657461726465725F5365CB
:1023C0006C656374696F6E20302E345F252F6269EF
:1023D000742030202500363134343120382031301B
:1023E000306D732045424331203420312032203972
:1023F000373220416363656C657261746F725F4947
:102400006E7465726C6F636B5F5377697463682079
:10241000345F7374617465732F325F626974203046
:102420002062697400363134343120382031303044
:102430006D73204542433120342033203220393718
:102440003120456E67696E655F4465726174655FD2
:1024500053776974636820345F7374617465732F94
:10246000325F62697420302062697400363134341E
:10247000312038203130306D7320454243312034D3
:10248000203520322039373020456E67696E655F10
:10249000417578696C696172795F53687574646FAE
:1024A000776E5F53776974636820345F7374617407
:1024B00065732F325F626974203020626974003660
:1024C000313434312038203130306D73204542436F
:1024D00031203420372032203936392052656D6F53
:1024E00074655F416363656C657261746F725F45AB
:1024F0006E61626C655F53776974636820345F73E3
:1025000074617465732F325F626974203020626970
:10251000740036313434312038203130306D73203E
:102520004542433120332035203220353737204192
:1025300053525F48696C6C5F486F6C6465725F539F
:10254000776974636820345F7374617465732F32C4
:102550005F6269742030206269740036313434312E
:102560002038203130306D732045424331203320F4
:1025700033203220353736204153525F4F66662D67
:10258000726F61645F53776974636820345F73743A
:10259000617465732F325F626974203020626974E0
:1025A0000036313434312038203130306D732045DD
:1025B000424331203320312032203537352041420B
:1025C000535F4F66662D726F61645F537769746302
:1025D0006820345F7374617465732F325F6269744D
:1025E0002030206269740036313434312038203193
:1025F00030306D7320454243312031203520322068
:1026000035363320416E74692D4C6F636B5F4272B7
:10261000616B696E675F28414253295F416374694A
:10262000766520345F7374617465732F325F6269FD
:1026300074203020626974003631343431203820FF
:102640003130306D73204542433120312033203208
:1026500020353632204153525F4272616B655F43D1
:102660006F6E74726F6C5F41637469766520345F5E
:102670007374617465732F325F62697420302062F5
:1026800069740036313434312038203130306D7384
:10269000204542433120312031203220353631204F
:1026A0004153525F456E67696E655F436F6E74722A
:1026B0006F6C5F41637469766520345F7374617415
:1026C00065732F325F62697420302062697400364E
:1026D000313434312038203130306D73204542435D
:1026E0003120322031203820353231204272616B66
:1026F000655F506564616C5F506F736974696F6E7C
:1027000020302E345F252F6269742030202500355B
:1027100037333434203820313030306D7320434D1E
:102720003120362033203220333639362044696553
:1027300073656C5F506172746963756C6174655F19
:1027400046696C7465725F526567656E6572617427
:10275000696F6E5F466F7263655F53776974636814
:1027600020345F7374617465732F325F6269742003
:1027700030206269740035373334342038203130EA
:1027800030306D7320434D312036203120322033DC
:102790003639352044696573656C5F5061727469C0
:1027A00063756C6174655F46696C7465725F5265D0
:1027B00067656E65726174696F6E5F496E686962A4
:1027C00069745F53776974636820345F73746174EC
:1027D00065732F325F62697420302062697400353E
:1027E00037333434203820313030306D7320434D4E
:1027F0003120382031203820323539362053656C6D
:1028000065637465645F4D6178696D756D5F56656C
:102810006869636C655F53706565645F4C696D6979
:102820007420315F636F756E742F6269742030207D
:10283000636F756E7400353733343420382031308F
:1028400030306D7320434D31203420372032203119
:1028500038353620536561745F42656C745F537719
:102860006974636820345F7374617465732F325FB9
:102870006269742030206269740035373334342043
:102880003820313030306D7320434D3120342035C5
:1028900020322031373134204F70657261746F728D
:1028A0005F536561745F446972656374696F6E5FDD
:1028B00053776974636820345F7374617465732F30
:1028C000325F6269742030206269740035373334B6
:1028D00034203820313030306D7320434D31203278
:1028E00020312031362031363931204361625F4951
:1028F0006E746572696F725F54656D706572617434
:102900007572655F436F6D6D616E6420302E30337C
:102910003132355F6465675F432F626974202D3201
:1029200037332043003537333434203820313030CA
:10293000306D7320434D312037203720322031361F
:10294000383620526571756573745F4361625F5AF2
:102950006F6E655F48656174696E6720345F73747C
:10296000617465732F325F6269742030206269740C
:10297000003537333434203820313030306D732017
:10298000434D312037203520322031363835205222
:102990006571756573745F456E67696E655F5A6FC3
:1029A0006E655F48656174696E6720345F7374613A
:1029B0007465732F325F626974203020626974001D
:1029C0003537333434203820313030306D73204384
:1029D0004D312034203120322031363834204175B9
:1029E00078696C696172795F4865617465725F438B
:1029F0006F6F6C616E745F50756D705F526571754D
:102A000065737420345F7374617465732F325F6211
:102A100069742030206269740035373334342038CB
:102A200020313030306D7320434D3120372031203C
:102A300034203136383320417578696C6961727998
:102A40005F4865617465725F4D6F64655F52657163
:102A5000756573742031365F7374617465732F34D8
:102A60005F62697420302062697400353733343412
:102A7000203820313030306D7320434D31203420E8
:102A800033203220313638322042617474657279D5
:102A90005F4D61696E5F5377697463685F486F6CFF
:102AA000645F5265717565737420345F737461740B
:102AB00065732F325F62697420302062697400355B
:102AC00037333434203820313030306D7320434D6B
:102AD000312036203520322031363636204175748B
:102AE0006F6D617469635F476561725F53686966A2
:102AF00074696E675F456E61626C655F5377697478
:102B0000636820345F7374617465732F325F626928
:102B10007420302062697400353733343420382013
:102B2000313030306D7320434D3120362037203224
:102B3000203136353620456E67696E655F417574A4
:102B40006F6D617469635F53746172745F456E6128
:102B5000626C655F53776974636820345F73746176
:102B60007465732F325F626974203020626974006B
:102B70003537333434203820313030306D732043D2
:102B80004D31203520332032203136353520566501
:102B90006869636C655F4C696D6974696E675F53E2
:102BA000706565645F476F7665726E6F725F4465CE
:102BB0006372656D656E745F537769746368203402
:102BC0005F7374617465732F325F626974203020A3
:102BD0006269740035373334342038203130303076
:102BE0006D7320434D31203520352032203136356C
:102BF000342056656869636C655F4C696D697469FA
:102C00006E675F53706565645F476F7665726E6F60
:102C1000725F496E6372656D656E745F5377697438
:102C2000636820345F7374617465732F325F626907
:102C300074203020626974003537333434203820F2
:102C4000313030306D7320434D3120352037203204
:102C500020313635332056656869636C655F4C6991
:102C60006D6974696E675F53706565645F476F7601
:102C700065726E6F725F456E61626C655F537769F6
:102C800074636820345F7374617465732F325F629C
:102C90006974203020626974003537333434203849
:102CA00020313030306D7320434D312031203120C0
:102CB0003820393836205265717565737465645FE4
:102CC00050657263656E745F46616E5F53706565D3
:102CD0006420302E345F252F626974203020250057
:102CE0003533323438203820203130306D73202095
:102CF000434C203120312038203134383720496C82
:102D00006C756D696E6174696F6E5F427269676838
:102D1000746E6573735F50657263656E7420302ED8
:102D2000345F252F6269742030202500323536202B
:102D30003820202035306D73205443312036203721
:102D400020322031383535205472616E736D6973CD
:102D500073696F6E5F4D6F64655F3420345F7374A9
:102D6000617465732F325F62697420302062697408
:102D700000323536203820202035306D7320544302
:102D800031203620352032203138353420547261DC
:102D90006E736D697373696F6E5F4D6F64655F33DA
:102DA00020345F7374617465732F325F62697420BD
:102DB00030206269740032353620382035306D732A
:102DC00020544331203220312038203638342052EC
:102DD00065717565737465645F50657263656E7463
:102DE0005F436C757463685F536C697020302E3478
:102DF0005F252F6269742030202500302038202084
:102E000020202031306D7320545343312032203143
:102E1000203136202038393820456E67696E655F6D
:102E20005265717565737465645F53706565642F71
:102E300053706565645F4C696D697420302E313262
:102E4000355F72706D2F62697420302072706D0072
:102E5000302038202020202031306D7320545343FF
:102E600031203420312038202035313820456E671C
:102E7000696E655F5265717565737465645F546FE3
:102E8000727175652F546F727175655F4C696D69EC
:102E90007420315F252F626974202D313235202551
:102EA000002D202D20202020202D2D2D2D202D2DDA
:102EB0002D2D202D202D202D202D2D2D202D202D90
:102EC000202D202D00A12E502EFB2DB62D712D2C46
:102ED0002DE02C992C382CD42B702B182BBF2A6B5F
:102EE0002A192AC02971292529CC287A283628DFD1
:102EF0002776270F27CF2683263826E725A1255BAF
:102F0000251225BF246C242524D62391234D23F993
:102F100022B0224E22042292213421E620A0205BFE
:102F2000200920C21F751F361FE21E971E511EDE8C
:102F30001D961D4A1DEE1CA51C4D1CF41BA51B63F4
:102F40001B101BC71A721A1E1ACF197B192419B627
:102F5000185F181718BC1769170A17A1164416F935
:102F6000159A154715E41480141814D213801324ED
:102F700013DE1284121112AC115A111311BD105824
:102F8000100210A90F500FF20E960E400EEB0D9985
:102F90000D660D340D050DD00C990C620C180CCF7C
:102FA0000B7F0B320BED0AB00A6D0A2A0AE309A166
:102FB0000951090909C3087E082508E20796074751
:102FC00007F406AE0659060B06C4056C052305D4A6
:102FD000049C04520400AA5A11241FBECFEFD1E270
:102FE000DEBFCDBF00E00CBF18E0A0E0B2E0E0EF34
:102FF000F3ED00E00BBF02C007900D92AC38B107B3
:10300000D9F721E1ACE8B8E001C01D92A833B207BE
:10301000E1F717E1CCEED7E100E006C02197010906
:10302000802FFE010E94A963CB3ED10780E00807F4
:10303000A9F70E94F4530C94F6690C940000CF9306
:10304000DF93CDB7DEB767970FB6F894DEBF0FBE3C
:10305000CDBF0E94D8379987888744244A94F3E0EB
:103060005F2E612C712C8091010290910202A0913F
:103070000302B0910402E2E0B595A7959795879574
:10308000EA95D1F78093C50E9093C60EA093C70E14
:10309000B093C80E8091C50E9091C60EA091C70E38
:1030A000B091C80E8233910508F047C0FC01882713
:1030B000EE58FF4F8F4F0C94A96386E10E94A8320F
:1030C00040E060E0892B89F480E993E00E94483D6C
:1030D00041E060E081EA93E00E94483D68EB7BE0DC
:1030E00080E090E00E945A3328C082EB93E00E9477
:1030F000483D80910002882339F042E350E061E0CE
:1031000084EC93E00E943B501092000241E060E0AA
:1031100084EE93E00E94483D1092F30C1092540903
:103120008091000D14E0819FC00111249093F90C4F
:103130008093F80C80E00E94B14B56EF252E5CE0A6
:10314000352E66E3D62EE12CF12C7EE0C72E0C94B2
:103150001A218091F80C9091F90C2091000D30E02B
:1031600096958795969587952817390769F48091E4
:10317000580A40E060E080FF03C085EF93E002C0A2
:1031800081E796E00E94483D2091FA0C3091FB0CBB
:103190008091F80C9091F90C969587959695879566
:1031A0002817390711F00C94D3268091F30C813045
:1031B00011F00C94D326C1CF8091010D9091020D96
:1031C0002091090D30E0969587959695879528175B
:1031D000390769F48091580A40E060E080FF03C03D
:1031E0008EEB95E002C081E796E00E94483D209179
:1031F000030D3091040D8091010D9091020D969573
:103200008795969587952817390711F00C94112703
:103210008091F30C823011F00C9411278ECF8091A5
:103220000A0D90910B0D2091120D30E09695879527
:10323000969587952817390769F48091580A40E0D8
:1032400060E080FF03C085EB95E002C081E796E077
:103250000E94483D20910C0D30910D0D80910A0D7A
:1032600090910B0D96958795969587952817390718
:1032700011F00C9459278091F30C833011F00C94C9
:1032800059275BCF8091130D9091140D20911B0D48
:1032900030E096958795969587952817390769F4B4
:1032A0008091580A40E060E080FF03C08AE294E029
:1032B00002C081E796E00E94483D2091150D3091B3
:1032C000160D8091130D9091140D969587959695F6
:1032D00087952817390711F00C94A1278091F30CDA
:1032E000843011F00C94A12728CF80911C0D90916F
:1032F0001D0D2091240D30E0969587959695879524
:103300002817390769F48091580A40E060E080FF8F
:1033100003C08FE897E002C081E796E00E94483D35
:1033200020911E0D30911F0D80911C0D90911D0D4F
:1033300096958795969587952817390711F00C94DF
:10334000E9278091F30C853011F00C94E927F5CE34
:103350008091250D9091260D20912D0D30E09695B0
:103360008795969587952817390769F48091580AAB
:1033700040E060E080FF03C08EE494E002C081E79B
:1033800096E00E94483D2091270D3091280D8091B4
:10339000250D9091260D96958795969587952817DA
:1033A000390711F00C9431288091F30C863011F01C
:1033B0000C943128C2CE2091300D3091310D809186
:1033C0002E0D90912F0D9695879596958795281798
:1033D000390711F00C9479288091F30C873011F0A3
:1033E0000C947928AACE2091390D30913A0D809114
:1033F000370D9091380D9695879596958795281756
:10340000390711F00C9476298091F30C883011F073
:103410000C94762992CE2091420D3091430D8091EB
:10342000400D9091410D9695879596958795281713
:10343000390711F00C94182A8091F30C893011F09F
:103440000C94182A7ACE20914B0D30914C0D80911E
:10345000490D90914A0D96958795969587952817D1
:10346000390711F00C94472A8091F30C8A3011F03F
:103470000C94472A62CE2091540D3091550D8091C5
:10348000520D9091530D969587959695879528178F
:10349000390711F00C94762A8091F30C8B3011F0DF
:1034A0000C94762A4ACE20915D0D30915E0D80916C
:1034B0005B0D90915C0D969587959695879528174D
:1034C000390711F00C94A52A8091F30C8C3011F07F
:1034D0000C94A52A32CE2091660D3091670D809113
:1034E000640D9091650D969587959695879528170B
:1034F000390711F00C94D42A8091F30C8D3011F01F
:103500000C94D42A1ACE40916F0D5091700D809179
:103510006D0D90916E0D9695879596958795209156
:10352000F30C4817590711F00C94032B2E3011F0AF
:103530000C94032B02CE2091780D3091790D80915F
:10354000760D9091770D9695879596958795281786
:10355000390711F00C94362B8091F30C8F3011F059
:103560000C94362BEACD2091810D3091820D809103
:103570007F0D9091800D9695879596958795281744
:10358000390711F00C94922B8091F30C803111F0DB
:103590000C94922BD2CD20918A0D30918B0D80917D
:1035A000880D9091890D9695879596958795281702
:1035B000390711F00C9443298091F30C813111F0FB
:1035C0000C944329BACD8091580A1F928F93809111
:1035D000590A1F928F9380915A0A1F928F9386E403
:1035E00095E09F938F9388E799E09F938F930E9434
:1035F000D86340E060E088E799E00E94483D209170
:10360000930D3091940D8091910D9091920D96951E
:103610008795969587950FB6F894DEBF0FBECDBF00
:103620002817390729F48091F30C823109F450C02E
:103630008091910D9091920D96958795969587958D
:10364000809721F41092920D1092910D4091A30D4C
:103650005091A40D20919A0D30919B0D8091910D68
:103660009091920D56954795569547955F934F9338
:1036700036952795369527953F932F939695879561
:10368000969587959F938F938DE595E09F938F9364
:1036900088E799E09F938F930E94D86341E060E0B0
:1036A00088E799E00E94483D82E10E94B14B8091F9
:1036B000910D9091920D96958795969587959093FB
:1036C000940D8093930D0FB6F894DEBF0FBECDBF5F
:1036D00082E16BC58091580A1F928F938091590A9D
:1036E0001F928F9380915A0A1F928F9380E795E0E3
:1036F0009F938F9388E699E09F938F930E94D8635E
:1037000040E060E088E699E00E94483D20919C0DF1
:1037100030919D0D80919A0D90919B0D9695879576
:10372000969587950FB6F894DEBF0FBECDBF2817CC
:10373000390729F48091F30C833109F450C080914A
:103740009A0D90919B0D96958795969587950D97D7
:1037500021F410929B0D10929A0D4091A30D50915F
:10376000A40D20919A0D30919B0D8091910D909117
:10377000920D56954795569547955F934F9336957D
:103780002795369527953F932F93969587959695F0
:1037900087959F938F9385E895E09F938F9388E615
:1037A00099E09F938F930E94D86341E060E088E6A0
:1037B00099E00E94483D83E10E94B14B80919A0DAF
:1037C00090919B0D969587959695879590939D0DD5
:1037D00080939C0D0FB6F894DEBF0FBECDBF83E182
:1037E000E4C48091580A1F928F938091590A1F92C6
:1037F0008F9380915A0A1F928F9380E795E09F9351
:103800008F9388E599E09F938F930E94D86340E05F
:1038100060E088E599E00E94483D2091A50D309137
:10382000A60D8091A30D9091A40D969587959695E0
:1038300087950FB6F894DEBF0FBECDBF28173907A6
:1038400029F48091F30C843109F44FC08091A30DC9
:103850009091A40D88309F4130F484E09FE19093D3
:10386000A40D8093A30D4091A30D5091A40D209120
:103870009A0D30919B0D8091910D9091920D5695DE
:103880004795569547955F934F933695279536956F
:1038900027953F932F9396958795969587959F9318
:1038A0008F9388E995E09F938F9388E599E09F93A4
:1038B0008F930E94D86341E060E088E599E00E9420
:1038C000483D84E10E94B14B8091A30D9091A40DDD
:1038D00096958795969587959093A60D8093A50DBF
:1038E0000FB6F894DEBF0FBECDBF84E15EC48091F9
:1038F000F30C853111F00E9438504091C50E509163
:10390000C60E6091C70E7091C80E4F5051096109E3
:1039100071092BE0249FC001259F900D112440E0E8
:1039200060E0885E904F0E94483D40E069E08BEA8D
:1039300095E00E94483DF12C00E010E03EE0E32ECF
:103940008091C50E9091C60EA091C70EB091C80E81
:103950000F97A109B109E89EF001E99EF00D11242D
:10396000E453F64FE00FF11F868140E1BE016F5F27
:103970007F4F90E00E94185D8091C50E9091C60E19
:10398000A091C70EB091C80E0F97A109B109E89E8A
:10399000F001E99EF00D1124E453F64FE00FF11F02
:1039A000868141E0813120F06F2DCE0101960AC061
:1039B00061E06F0DCE0101960E94483D41E06F2D00
:1039C00081EF94E00E94483D0F5F1F4FF394F39402
:1039D000F0E1FF12B5CF85E10E94B14B85E1E5C36F
:1039E0008091F30C863111F00E9438504091C50E41
:1039F0005091C60E6091C70E7091C80E4F5051097C
:103A0000610971092BE0249FC001259F900D1124AD
:103A100040E060E0885E904F0E94483D40E069E0F1
:103A200080EB95E00E94483DF12C00E010E02EE094
:103A3000E22E8091C50E9091C60EA091C70EB09156
:103A4000C80E0F97A109B109E89EF001E99EF00D9B
:103A50001124E453F64FE00FF11F868140E1BE01CF
:103A60006F5F7F4F90E00E94185D8091C50E90912E
:103A7000C60EA091C70EB091C80E0F97A109B1094B
:103A8000E89EF001E99EF00D1124E453F64FE00F9B
:103A9000F11F868141E0813120F06F2DCE0101962A
:103AA0000AC061E06F0DCE0101960E94483D41E0E1
:103AB0006F2D81EF94E00E94483D0F5F1F4FF394FC
:103AC000F39420E1F212B5CF86E10E94B14B86E17A
:103AD0006CC38091F30C873111F00E9438504091F3
:103AE000C50E5091C60E6091C70E7091C80E4F5012
:103AF0005109610971092BE0249FC001259F900D98
:103B0000112440E060E0885E904F0E94483D40E014
:103B100069E087EB95E00E94483DF12C00E010E061
:103B20009EE0E92E8091C50E9091C60EA091C70E21
:103B3000B091C80E0F97A109B109E89EF001E99E66
:103B4000F00D1124E453F64FE00FF11F868140E1A0
:103B5000BE016F5F7F4F90E00E94185D8091C50E9F
:103B60009091C60EA091C70EB091C80E0F97A109F3
:103B7000B109E89EF001E99EF00D1124E453F64FDF
:103B8000E00FF11F868141E0813120F06F2DCE01E1
:103B900001960AC061E06F0DCE0101960E94483D7A
:103BA00041E06F2D81EF94E00E94483D0F5F1F4F71
:103BB000F394F39430E1F312B5CF87E10E94B14B57
:103BC00087E1F3C28091F30C883111F00E943850E4
:103BD0004091C50E5091C60E6091C70E7091C80EEF
:103BE0004F505109610971092BE0249FC001259FA5
:103BF000900D112440E060E0885E904F0E94483DA7
:103C000040E069E08CEB95E00E94483DF12C00E03B
:103C100010E08EE0E82E8091C50E9091C60EA09126
:103C2000C70EB091C80E0F97A109B109E89EF00127
:103C3000E99EF00D1124E453F64FE00FF11F868149
:103C400040E1BE016F5F7F4F90E00E94185D809160
:103C5000C50E9091C60EA091C70EB091C80E0F97D9
:103C6000A109B109E89EF001E99EF00D1124E45389
:103C7000F64FE00FF11F868141E0813120F06F2D7A
:103C8000CE0101960AC061E06F0DCE0101960E943F
:103C9000483D41E06F2D81EF94E00E94483D0F5F69
:103CA0001F4FF394F39440E1F412B5CF88E10E94E2
:103CB000B14B88E17AC28091F30C893141F00E94C6
:103CC000385040E060E080EC95E00E94483D89E19A
:103CD0000E94B14B89E169C24091DB0D5091DC0D2E
:103CE0008091D90D9091DA0D969587959695879547
:103CF0002091F30C4817590711F00C94BD2C2A3170
:103D000011F00C94BD2C19CA4091E40D5091E50DB1
:103D10008091E20D9091E30D969587959695879504
:103D20002091F30C4817590711F00C94012D2B31F9
:103D300011F00C94012D01CA4091ED0D5091EE0D42
:103D40008091EB0D9091EC0D9695879596958795C2
:103D50002091F30C4817590711F00C94502D2C3179
:103D600011F00C94502DE9C94091F60D5091F70DCA
:103D70008091F40D9091F50D969587959695879580
:103D80002091F30C4817590711F00C949F2D2D31F9
:103D900011F00C949F2DD1C92091FF0D3091000E90
:103DA0008091FD0D9091FE0D96958795969587953E
:103DB0002817390711F00C94ED2D8091F30C8E31FA
:103DC00011F00C94ED2DB9C92091080E3091090E17
:103DD0008091060E9091070E9695879596958795FA
:103DE0002817390711F00C94122E8091F30C8F31A3
:103DF00011F00C94122EA1C92091110E3091120EC7
:103E000080910F0E9091100E9695879596958795B7
:103E10002817390711F00C943A2E8091F30C803258
:103E200011F00C943A2E89C920911A0E30911B0E74
:103E30008091180E9091190E969587959695879575
:103E40002817390711F00C945F2E8091F30C813202
:103E500011F00C945F2E71C94091230E5091240EE5
:103E60008091210E9091220E969587959695879533
:103E70002091F30C4817590711F00C94842E22322C
:103E800011F00C94842E59C940912C0E50912D0E96
:103E900080912A0E90912B0E9695879596958795F1
:103EA0002091F30C4817590711F00C94F92E233286
:103EB00011F00C94F92E41C92091350E3091360E37
:103EC0008091330E9091340E9695879596958795AF
:103ED0002817390711F00C940E2F8091F30C8432BF
:103EE00011F00C940E2F29C920913E0E30913F0EF7
:103EF00080913C0E90913D0E96958795969587956D
:103F00002817390711F00C94122F8091F30C853289
:103F100011F00C94122F11C92091470E3091480EC8
:103F20008091450E9091460E96958795969587952A
:103F30002817390711F00C94162F8091F30C863254
:103F400011F00C94162FF9C84091500E5091510E5B
:103F500080914E0E90914F0E9695879596958795E8
:103F60002091F30C4817590711F00C941D2F27329C
:103F700011F00C941D2FE1C84091590E50915A0E2A
:103F80008091570E9091580E9695879596958795A6
:103F90002091F30C4817590711F00C94252F283263
:103FA00011F00C94252FC9C84091620E5091630EF8
:103FB0008091600E9091610E969587959695879564
:103FC0002091F30C4817590711F00C94392F29321E
:103FD00011F00C94392FB1C840916B0E50916C0EBA
:103FE0008091690E90916A0E969587959695879522
:103FF0002091F30C4817590711F00C943C2F2A32EA
:1040000011F00C943C2F99C84091740E5091750E8C
:104010008091720E9091730E9695879596958795DF
:104020002091F30C4817590711F00C943F2F2B32B5
:1040300011F00C943F2F81C840917D0E50917E0E5F
:1040400080917B0E90917C0E96958795969587959D
:104050002091F30C4817590711F00C94422F2C3281
:1040600011F00C94422F69C84091860E5091870E32
:104070008091840E9091850E96958795969587955B
:104080002091F30C4817590711F00C94452F2D324D
:1040900011F00C94452F51C840918F0E5091900E05
:1040A00080918D0E90918E0E969587959695879519
:1040B0002091F30C4817590711F00C94482F2E3219
:1040C00011F00C94482F39C84091980E5091990ED8
:1040D0008091960E9091970E9695879596958795D7
:1040E0002091F30C4817590711F00C944B2F2F32E5
:1040F00011F00C944B2F21C84091A10E5091A20EAB
:1041000080919F0E9091A00E969587959695879594
:104110002091F30C4817590711F00C944E2F2033BF
:1041200011F00C944E2F09C84091AA0E5091AB0E7D
:104130008091A80E9091A90E969587959695879552
:104140002091F30C4817590711F00C949A2F213342
:1041500011F00C949A2F0C949D188091370D90912A
:10416000380D9695879596958795019711F00C9443
:104170009D2940E069E08DEB94E00E94483D41E0DC
:1041800069E08DEB94E00E94483D88E00E94B14BCD
:104190008091370D9091380D9695879596958795D6
:1041A00090933A0D8093390D88E08093F30C0C9432
:1041B0009D18612F70E080E090E00E9486609B0176
:1041C000AC0160E070E080E090E40E94EC606E87FB
:1041D0007F87888B998BF1013297A080319600817F
:1041E000B12C103261F58D2D0E943B33DC012FEF95
:1041F0003FEF4FEF5AEF0E942360A30192010E940C
:10420000FD5FCE9CF001CF9CF00D1124E453F64FDE
:10421000EA0DFB1D2583368347835087BFEFEB1ADA
:10422000FB0AE9E02E0E311CD394F6E0EF16F10400
:1042300009F4A2C0D1011C91112381F3BACF10312E
:10424000C1F48D2D0E943B332FEF3AEFDC010E9429
:10425000B763A30192010E94FD5FCE9CF001CF9C49
:10426000F00D1124E453F64FEA0DFB1D2583368330
:10427000D5CF183029F020E030E0123019F405C015
:104280002AEF30E080E090E002C083E090E0820F0F
:10429000931F143019F020E030E002C02FE030E02E
:1042A000820F931F21E030E0113011F020E030E068
:1042B0004C01820E931E8D2D0E943B332091C50E22
:1042C0003091C60E4091C70E5091C80E2A873B8789
:1042D0004C875D8731E0A31AB10810E00150110945
:1042E000CE9C9001CF9C300D11242453364FA90150
:1042F0004A0D5B1D5B8B4A8B9C01D4010E94B1630C
:10430000A30192010E94FD5FDA01C901002E04C0E1
:10431000880F991FAA1FBB1F0A94D2F78C8B9D8B05
:10432000AE8BBF8B6E857F85888999890E945A6084
:10433000DC01CB0104C0880F991FAA1FBB1F0A957F
:10434000D2F7682F60958A859B85AC85BD850197DE
:10435000A109B109C89EF001C99EF00D1124E453D2
:10436000F64FEA0DFB1D268162238C88862AAA89D6
:10437000BB8916968C9252CF87E10E94A832892B76
:1043800009F037C38091C50E9091C60EA091C70E5B
:10439000B091C80E4097A105B10531F48CEF93E0C0
:1043A0009093800D80937F0D8091C50E9091C60EE5
:1043B000A091C70EB091C80EC197A105B10531F407
:1043C0008CEF93E09093A90E8093A80E8091C50E78
:1043D0009091C60EA091C70EB091C80E8397A1050B
:1043E000B10539F480E090E890932B0E80932A0E6B
:1043F00036C08091C50E9091C60EA091C70EB091A7
:10440000C80E8497A105B10529F41092340E1092BC
:10441000330E25C08091C50E9091C60EA091C70E97
:10442000B091C80E8597A105B10539F488E190E0F7
:1044300090933D0E80933C0E12C08091C50E9091DA
:10444000C60EA091C70EB091C80E8697A105B10502
:1044500031F480E190E09093460E8093450E809178
:10446000C50E9091C60EA091C70EB091C80E409196
:10447000C50E5091C60E6091C70E7091C80E4131A5
:1044800051056105710521F00797A105B10521F4DA
:1044900061E087E00E94FF328091C50E9091C60EC8
:1044A000A091C70EB091C80E892B8A2B8B2B61F47B
:1044B00024E630E040E050E0209301023093020215
:1044C00040930302509304028CEA99E00E94F45C4A
:1044D000A091CC09B091CD092090DA093090DB0988
:1044E0006091E8097091E9094091F6095091F70946
:1044F0002091040A3091050AE090120AF090130A04
:104500008090C50E9090C60EA090C70EB090C80EB9
:1045100001E02816390609F400E011E0A817B907F0
:1045200009F410E0102301E06817790709F400E0AE
:10453000012311E04817590709F410E0102301E0A6
:104540002817390709F400E0012311E0E816F906FD
:1045500009F410E0D02ED122E1E08E1A9108A108D2
:10456000B108EEE0CE2EC89C8001C99C100D11242C
:104570000453164FCC24C394F8010081118108170D
:10458000190709F0C12C1D2D1C29A817B90719F40A
:1045900065EF73E01DC02816390619F46EEB75E05F
:1045A00017C06817790719F465EB75E011C0481753
:1045B000590719F46AE274E00BC02817390719F497
:1045C0006FE877E005C0E816F90631F46EE474E0B0
:1045D000CE0101960E94D163112331F14091C50EA5
:1045E0005091C60E6091C70E7091C80E8091C50E95
:1045F0009091C60EA091C70EB091C80E29E0289FD9
:10460000F001299FF00D1124E151F34F8081918138
:10461000249FF001259FF00D1124E151F34F969551
:1046200087959695879580874091C50E5091C60EC7
:104630006091C70E7091C80E8091C50E9091C60E04
:10464000A091C70EB091C80E29E0289FF001299FC4
:10465000F00D1124E151F34F80819181969587955A
:1046600096958795892B09F463C1473051056105FB
:1046700071050CF05DC1112309F446C1C090C50E4F
:10468000D090C60EE090C70EF090C80E8CEA99E06C
:104690000E94F45CF1E0CF1AD108E108F1082EE0A5
:1046A0002C9DF0012D9DF00D1124E453F64F9183C4
:1046B00080838091C50E9091C60EA091C70EB091D7
:1046C000C80E0197A109B109289FF001299FF00D9B
:1046D0001124E453F64F2081318180915609909145
:1046E000570928173907B9F180E090E03EE02FEF35
:1046F0004091C50E5091C60E6091C70E7091C80EC4
:104700004150510961097109349FF001359FF00D45
:104710001124E453F64FE80FF91F268301968830E1
:10472000910531F78091C50E9091C60EA091C70EEC
:10473000B091C80E0197A109B1092EE0289FF001A0
:10474000299FF00D1124E453F64F808191819093BD
:10475000570980935609C090C50ED090C60EE090C0
:10476000C70EF090C80E84EA99E00E94F45C11E054
:10477000C11AD108E108F1082EE02C9DF0012D9D11
:10478000F00D1124E453F64F93838283C090C50E3D
:10479000D090C60EE090C70EF090C80E8FE999E059
:1047A0000E94F45C21E0C21AD108E108F10819E086
:1047B0001C9DF0011D9DF00D1124E151F34F8583E7
:1047C000C090C50ED090C60EE090C70EF090C80EF7
:1047D0008AE999E00E94F45C31E0C31AD108E1084B
:1047E000F1081C9DF0011D9DF00D1124E151F34FC6
:1047F0008683C090C50ED090C60EE090C70EF09094
:10480000C80E80E999E00E94F45C41E0C41AD10826
:10481000E108F1081C9DF0011D9DF00D1124E151EE
:10482000F34F87838091C50E9091C60EA091C70E5D
:10483000B091C80E0197A109B109880F991FFC0119
:10484000EF54F64F008111810115110511F40E94FA
:104850002B418091E00A9091E10A0817190709F4A9
:104860003BC00FB6F8940F92D8011A968D919C9187
:104870001B978257904171F5F80184899589F0E181
:1048800084389F0739F1892B29F57801E2E0EE0E93
:10489000F11CC7010E943D40D80156968C91909121
:1048A000DF0A981710F48093DF0A29E0829FC00185
:1048B0001124B7018554954F0E949840E091E00A79
:1048C000F091E10AD80156969C918689981710F0CC
:1048D0000E94DC3F0F900FBE68EE73E080E090E036
:1048E0000E945A3380919F0E9091A00E96958795C5
:1048F000969587950197E1F444E650E060E08CE8F6
:1049000098E00E943B5014C00E94385040E060E0A4
:1049100085EC96E00E94483D40E06CE0CE010196B7
:104920000E94483D68EE73E080E090E00E945A33B8
:104930004091C50E5091C60E6091C70E7091C80E81
:10494000C090C50ED090C60EE090C70EF090C80E75
:104950008091C50E9091C60EA091C70EB091C80E61
:1049600029E0289FF001299FF00D1124E151F34F18
:104970002081318191E01C141D041E041F040CF0E1
:1049800090E081E047305105610571050CF080E051
:104990008923D9F0C9019695879596958795892B96
:1049A000A1F48091C50E9091C60EA091C70EB09152
:1049B000C80E0197A109B109880F991FFC01EF5496
:1049C000F64F808191810E948C388091C50E909124
:1049D000C60EA091C70EB091C80E29E0289FF00125
:1049E000299FF00D1124E151F34F83E690E093836A
:1049F000828386E10E94A832AC01C090C50ED0909F
:104A0000C60EE090C70EF090C80E8091C50E909132
:104A1000C60EA091C70EB091C80E21E01816190657
:104A20001A061B060CF020E091E0B7E0CB16D1048B
:104A3000E104F1040CF090E09223209154099923B1
:104A400011F0452B91F12130A1F187E10E94A832AC
:104A5000AC01C090C50ED090C60EE090C70EF0908D
:104A6000C80E8091C50E9091C60EA091C70EB09150
:104A7000C80E21E08297A105B1050CF020E091E07D
:104A8000EAE1CE16D104E104F1040CF490E029230C
:104A900091E0452B09F090E029238091550990E0A1
:104AA000822B892B09F41AC17CC0211102C00E94FB
:104AB000385088E090E09093380D8093370D81E076
:104AC0008093540940E060E081ED96E00E94483D0B
:104AD0004091C50E5091C60E6091C70E7091C80EE0
:104AE00041505109610971092BE0249FC001259FA4
:104AF000900D112440E068E0885E904F0E94483D90
:104B0000F12C00E010E06EE0E62E8091C50E909151
:104B1000C60EA091C70EB091C80E0197A109B109A8
:104B2000E89EF001E99EF00D1124E453F64FE00FEA
:104B3000F11F868140E1BE016F5F7F4F90E00E94D0
:104B4000185D8091C50E9091C60EA091C70EB091D0
:104B5000C80E0197A109B109E89EF001E99EF00D88
:104B60001124E453F64FE00FF11F868141E08131BB
:104B700020F06F2DCE0101960AC061E06F0DCE01CD
:104B800001960E94483D41E06F2D81EF94E00E9424
:104B9000483D0F5F1F4FF394F394F0E1FF12B5CF40
:104BA00054CF81E08093550960E08BE00E94D032C1
:104BB0008091FD0D9091FE0D969587959695879520
:104BC000019711F460E001C061E08EE30E94D032F1
:104BD0008091060E9091070E9695879596958795EC
:104BE000019711F460E001C061E08FE30E94D032D0
:104BF00080910F0E9091100E9695879596958795BA
:104C0000019711F460E001C061E080E40E94D032BD
:104C10008091180E9091190E969587959695879587
:104C2000019711F460E001C061E081E40E94D0329C
:104C30002091180E3091190E80910F0E9091100E48
:104C40004091060E5091070E6091FD0D7091FE0D82
:104C50003695279536952795440F440F240F820FDC
:104C600010E1619F800D11248093420A2FEF209361
:104C7000430A8091D90D9091DA0D96958795969576
:104C800087958093440A8091D90D9091DA0D892FF0
:104C9000869586958093450A8091E20D9091E30D6B
:104CA00096958795969587958093460A4091EB0D4A
:104CB0005091EC0D8091F40D9091F50D569547951E
:104CC0005695479505E0880F991F0A95E1F7842BC3
:104CD0008093470A2093480A2093490A86E10E945C
:104CE000A8324091C50E5091C60E6091C70E7091CA
:104CF000C80E892B59F4433251056105710531F411
:104D00008CE290E890932B0E80932A0E86E10E940D
:104D1000A832AC01C090C50ED090C60EE090C70E70
:104D2000F090C80E8091C50E9091C60EA091C70E4E
:104D3000B091C80E21E08297A105B1050CF020E0EA
:104D400091E03AE1C316D104E104F1040CF490E0DF
:104D5000922309F1452BF9F461E08BE00E94D032F7
:104D600061E08EE30E94D03261E08FE30E94D03296
:104D700061E080E40E94D03261E081E40E94D032A0
:104D80008EE0E1E2F2E0ACE3BAE001900D928A95A8
:104D9000E1F71092550962E370E0CE0108960E9497
:104DA000DD380C9433184091C50E5091C60E6091B9
:104DB000C70E7091C80E89E0849FF001859FF00DA9
:104DC0001124E151F34F208131812032324098F09B
:104DD0004091C50E5091C60E6091C70E7091C80EDD
:104DE000849FF001859FF00D1124E151F34F8CE178
:104DF00092E0918380838091F80C9091F90C9595C5
:104E00008795959587950E94614E40E060E087EF19
:104E100093E00E94483D81E00E94DE4B81E00C94CB
:104E20009B184091C50E5091C60E6091C70E7091AF
:104E3000C80E89E0849FF001859FF00D1124E15197
:104E4000F34F208131812032324098F04091C50EDD
:104E50005091C60E6091C70E7091C80E849FF001EC
:104E6000859FF00D1124E151F34F8CE192E0918385
:104E700080838091000D24E0829FC00111249093D3
:104E8000F90C8093F80C8091010D9091020D95958D
:104E90008795959587950E94614E40E060E088E097
:104EA00094E00E94483D82E00E94DE4B82E00C9438
:104EB0009B184091C50E5091C60E6091C70E70911F
:104EC000C80E89E0849FF001859FF00D1124E15107
:104ED000F34F208131812032324098F04091C50E4D
:104EE0005091C60E6091C70E7091C80E849FF0015C
:104EF000859FF00D1124E151F34F8CE192E09183F5
:104F000080838091090D34E0839FC0011124909328
:104F1000020D8093010D80910A0D90910B0D9595D6
:104F20008795959587950E94614E40E060E089E104
:104F300094E00E94483D83E00E94DE4B83E00C94A5
:104F40009B184091C50E5091C60E6091C70E70918E
:104F5000C80E89E0849FF001859FF00D1124E15176
:104F6000F34F208131812032324098F04091C50EBC
:104F70005091C60E6091C70E7091C80E849FF001CB
:104F8000859FF00D1124E151F34F8CE192E0918364
:104F900080838091120D44E0849FC001112490937E
:104FA0000B0D80930A0D8091130D9091140D959522
:104FB0008795959587950E94614E40E060E08CE270
:104FC00094E00E94483D84E00E94DE4B84E00C9413
:104FD0009B184091C50E5091C60E6091C70E7091FE
:104FE000C80E89E0849FF001859FF00D1124E151E6
:104FF000F34F208131812032324098F04091C50E2C
:105000005091C60E6091C70E7091C80E849FF0013A
:10501000859FF00D1124E151F34F8CE192E09183D3
:10502000808380911B0D54E0859FC00111249093D3
:10503000140D8093130D80911C0D90911D0D95956D
:105040008795959587950E94614E40E060E08DE3DD
:1050500094E00E94483D85E00E94DE4B85E00C9480
:105060009B184091C50E5091C60E6091C70E70916D
:10507000C80E89E0849FF001859FF00D1124E15155
:10508000F34F208131812032324098F04091C50E9B
:105090005091C60E6091C70E7091C80E849FF001AA
:1050A000859FF00D1124E151F34F8CE192E0918343
:1050B00080838091240DA4E08A9FC00111249093E5
:1050C0001D0D80931C0D8091250D9091260D9595B9
:1050D0008795959587950E94614E40E060E080E558
:1050E00094E00E94483D86E00E94DE4B86E00C94EE
:1050F0009B1880912D0DF4E08F9FC0011124909397
:10510000260D8093250D40E060E089ED96E00E9439
:10511000483D41E060E084EE96E00E94483D809189
:105120002E0D90912F0D889730F084E290E09093AF
:105130002F0D80932E0D80912E0D90912F0D969511
:10514000879596958795892B29F440E06BE081E659
:1051500094E086C080912E0D90912F0D96958795A5
:1051600096958795019729F440E06BE087E694E0F7
:1051700077C080912E0D90912F0D969587959695DD
:105180008795029729F440E06BE08DE694E068C0D3
:1051900080912E0D90912F0D9695879596958795D8
:1051A000039729F440E06BE083E794E059C08091D5
:1051B0002E0D90912F0D969587959695879504972E
:1051C00029F440E06BE089E794E04AC080912E0D1D
:1051D00090912F0D9695879596958795059729F42B
:1051E00040E06BE08FE794E03BC080912E0D909102
:1051F0002F0D9695879596958795069729F440E00B
:105200006BE085E894E02CC080912E0D90912F0DDD
:105210009695879596958795079729F440E06AE0DB
:105220008BE894E01DC080912E0D90912F0D9695E6
:10523000879596958795089729F440E06AE082E97A
:1052400094E00EC080912E0D90912F0D969587952C
:1052500096958795099731F440E06AE089E994E0F2
:105260000E94483D87E00E94B14B80912E0D9091A5
:105270002F0D96958795969587959093310D8093F0
:10528000300D87E02DC040E060E082E397E00E94AF
:10529000483D41E060E084EE96E00E94483D809108
:1052A000880D9091890D9695879596958795892B70
:1052B00009F083C240E06AE081EE94E00E94483D3C
:1052C00081E10E94B14B8091880D9091890D969556
:1052D00087959695879590938B0D80938A0D81E1A4
:1052E0008093F30C109254090C949D188091370D03
:1052F0009091380D849720F01092380D1092370D50
:1053000040E060E08FE994E00E94483D41E060E0C9
:105310008AEA94E00E94483D8091370D9091380DC3
:105320009695879596958795892B11F00C94AD20CD
:1053300040E069E085EB94E05BC08091370D90918F
:10534000380D9695879596958795029729F440E0B4
:1053500069E08DEB94E064C08091370D9091380D39
:105360009695879596958795039731F440E069E087
:1053700086EC94E00C94BD208091370D9091380D0F
:105380009695879596958795049729F440E069E06E
:1053900086EC94E045C08091370D9091380D96953C
:1053A000879596958795059729F440E069E08DEB00
:1053B00094E01EC08091370D9091380D9695879599
:1053C00096958795069731F440E069E085EB94E087
:1053D0000C94BD208091370D9091380D969587954E
:1053E00096958795079761F440E069E086EC94E034
:1053F0000E94483D41E069E085EB94E00C94C320B5
:105400008091370D9091380D969587959695879553
:10541000089711F00C94C52040E069E085EB94E01A
:105420000E94483D41E069E086EC94E00C94C32082
:105430008091400D9091410D8115944020F0109283
:10544000410D1092400D0E94E84A40E060E08FEC70
:1054500094E00E94483D8091400D9091410D9695B9
:105460008795969587958093D00989E00E94B14BE6
:105470008091400D9091410D9695879596958795D1
:105480009093430D8093420D89E00C94D520809138
:10549000490D90914A0D8115944020F010924A0DCB
:1054A0001092490D0E94E84A41E060E082ED94E0EC
:1054B0000E94483D8091490D90914A0D969587959F
:1054C000969587958093DE098AE00E94B14B809182
:1054D000490D90914A0D969587959695879590934D
:1054E0004C0D80934B0D8AE00C94D5208091520D89
:1054F0009091530D8115944020F01092530D10920D
:10550000520D0E94E84A40E065E085ED94E00E947B
:10551000483D8091520D9091530D969587959695A3
:1055200087958093EC098BE00E94B14B8091520DDE
:105530009091530D96958795969587959093550DD7
:105540008093540D8BE00C94D52080915B0D90914D
:105550005C0D8115944020F010925C0D10925B0D53
:105560000E94E84A41E065E088ED94E00E94483DF1
:1055700080915B0D90915C0D96958795969587959A
:105580008093FA098CE00E94B14B80915B0D909161
:105590005C0D969587959695879590935E0D809373
:1055A0005D0D8CE00C94D5208091640D9091650D7B
:1055B0008115944020F01092650D1092640D0E94A8
:1055C000E84A40E06AE08BED94E00E94483D80911B
:1055D000640D9091650D9695879596958795809326
:1055E000080A8DE00E94B14B8091640D9091650D89
:1055F00096958795969587959093670D8093660D00
:105600008DE00C94D5202E3011F00E9438508091FE
:105610006D0D90916E0D8115944020F010926E0DDD
:1056200010926D0D0E94E84A41E06AE08EED94E030
:105630000E94483D80916D0D90916E0D96958795D5
:10564000969587958093160A8EE00E94B14B8091C3
:105650006D0D90916E0D9695879596958795909383
:10566000700D80936F0D8EE00C94D52040E060E0CB
:1056700086EF96E00E94483D41E060E086E097E0DA
:105680000E94483D60917F0D7091800D76956795E1
:105690007695679580E090E00E94866001E02DE0BD
:1056A00043E00E94104F8091760D9091770D809786
:1056B00020F01092770D1092760D6091760D70911A
:1056C000770D769567957695679580E090E00E94D6
:1056D000866000E02FE041E00E94104F80E090E003
:1056E0002091760D3091770DFC01E453F64F3695FD
:1056F00027953695279525830E968C38910581F749
:105700008FE00E94B14B8091760D9091770D969528
:105710008795969587959093790D8093780D8FE076
:105720000C94D52040E060E084E197E00E94483D81
:105730006091760D7091770D769567957695679562
:1057400080E090E00E94866000E02FE041E00E944F
:10575000104F41E060E084E297E00E94483D809174
:105760007F0D9091800D8115944020F01092800D56
:1057700010927F0D60917F0D7091800D76956795E9
:105780007695679580E090E00E94866001E02DE0CC
:1057900043E00E94104F80E10E94B14B80917F0D49
:1057A0009091800D96958795969587959093820D0B
:1057B0008093810D80E10C94D5208091880D90918B
:1057C000890D9695879596958795019729F440E0E0
:1057D0006AE087EE94E072CD8091880D9091890DFA
:1057E0009695879596958795029729F440E06AE00B
:1057F0008DEE94E063CD8091880D9091890D969502
:10580000879596958795039729F440E06AE083EFA2
:1058100094E054CD8091880D9091890D969587954F
:1058200096958795049729F440E06AE08AEF94E022
:1058300045CD8091880D9091890D96958795969587
:105840008795059729F440E06AE080E095E036CD41
:105850008091880D9091890D96958795969587955D
:10586000069729F440E06AE087E095E027CD809133
:10587000880D9091890D96958795969587950797B0
:1058800029F440E06AE08EE095E018CD8091880D23
:105890009091890D9695879596958795089729F407
:1058A00040E06AE085E195E009CD8091880D909116
:1058B000890D9695879596958795099729F440E0E7
:1058C0006AE08CE195E0FACC8091880D9091890D89
:1058D00096958795969587950A9729F440E06AE012
:1058E00083E295E0EBCC8091880D9091890D96959F
:1058F0008795969587950B9729F440E06AE08AE2B0
:1059000095E0DCCC8091880D9091890D96958795D6
:10591000969587950C9729F440E06AE081E395E03D
:10592000CDCC8091880D9091890D9695879596950F
:1059300087950D9729F440E06AE088E395E0BECCB6
:105940008091880D9091890D96958795969587956C
:105950000E9729F440E06AE08FE395E0AFCC8091A8
:10596000880D9091890DCC9708F4AACC88E390E03B
:105970009093890D8093880DA3CC2A3111F00E9459
:10598000385040E060E082EC95E00E94483D609134
:10599000D90D7091DA0D769567957695679580E0CB
:1059A00090E00E94866000E02AE043E00E94104FF1
:1059B0006091E20D7091E30D769567957695679508
:1059C00080E090E00E94866001E02BE043E00E94CE
:1059D000104F41E060E08CEC95E00E94483D8AE188
:1059E0000E94B14B8091D90D9091DA0D96958795D3
:1059F000969587959093DC0D8093DB0D8AE10C944E
:105A0000D5202B3111F00E9438508091E20D9091F9
:105A1000E30D8038910520F01092E30D1092E20D15
:105A200040E060E086ED95E00E94483D6091E20D27
:105A30007091E30D769567957695679580E090E097
:105A40000E94866001E02BE043E00E94104F6091CD
:105A5000D90D7091DA0D769567957695679580E00A
:105A600090E00E94866000E02AE043E00E94104F30
:105A700041E060E080EE95E00E94483D8BE10E94AD
:105A8000B14B8091E20D9091E30D96958795969597
:105A900087959093E50D8093E40D8BE10C94D520D0
:105AA0002C3111F00E9438508091EB0D9091EC0D4B
:105AB0008115924020F01092EC0D1092EB0D40E019
:105AC00060E08AEE95E00E94483D6091EB0D709198
:105AD000EC0D769567957695679580E090E00E944D
